:020000040000FA
:10000000027D1A4E9003EBF0E0FF224E900422F0A6
:10001000E0FF2202A4B3A202921F2202AB93C2AC61
:10002000C2CA2202878BED33EC3360065004EC64C5
:1000300080FC22024ACEED33EC33601004700FEDE9
:10004000547F7005740292E0227404220422E42298
:10005000020411E86480F8E933E83360110460F0C9
:10006000ED33EC337009E8FCE9FDEAFEEBFF220416
:1000700060DED3EB9FEA9EE99DE8C2E78CF0C2F711
:1000800095F0400CE8CCF8E9CDF9EACEFAEBCFFBDD
:100090001203DC85D0F05804700320D5B3E8047057
:1000A000075002B2D502041B92D5EC0460F7E4CCF1
:1000B000C0E0C398F8603B94186008400DD0E0FBA6
:1000C0000203F3E4FBFAC9FC8028E830E406E4C943
:1000D000FBE4CAFCE830E305E4C9CACBFCE85407FA
:1000E0006010F8C3E913F9EA13FAEB13FBEC13FC05
:1000F000D8F130F52FC3E49CFCEF9BFFEE9AFEEDA8
:1001000099FDD0E0FBEF4E4D4C701222DB03020450
:1001100018EC2CFCEF33FFEE33FEED33FDED30E752
:10012000EB0203F3EF2BFFEE3AFEED39FDD0E0FBDF
:1001300050130BBB000302041BED13FDEE13FEEF87
:1001400013FFEC13FC0203F3EC4D6011E849701748
:10015000ED33EC3304600DE4FCFFFEFD22E933E8EF
:10016000330470F80204111203DC58046009E4CC73
:100170002481500628500902041B28400302041859
:10018000C0E0EB4A7044B98006D0E0FB020407EF00
:100190004E701CBD8008EBFFEAFEE9FD80EBE98DA7
:1001A000F0A4FEE5F0020231E9CDF9EAFEEBFFEF43
:1001B00089F0A4FCE5F0CE89F0A42EFFE435F0CD63
:1001C00089F0A42DFEE435F08067EF4E7005BD8008
:1001D000D780C3EF8BF0A4ACF0EE8BF0A42CFCE442
:1001E00035F0F8EF8AF0A42CE5F038FCE433CB8D41
:1001F000F0A42CFCE5F03BF8EE8AF0A42CFCE5F032
:1002000038F8E433CF89F0A42CFCE5F038CF340083
:10021000CE89F0A42FFFE5F03EFEE433C98DF0A4B3
:100220002EFEE5F039CD8AF0A42FFFE5F03EFEE486
:100230003DFD33D0E0FB50070BBB000F02041BEC6D
:100240002CFCEF33FFEE33FEED33FD0203F302042B
:100250001BEC5D046005E8590470030204111203ED
:10026000DC580460F6EC4860F2EC7004FDFEFF22FE
:10027000C860DB2481C85009C3986002500602049C
:10028000189850CAF582E9294B4A7005AB820204DE
:100290000775F0007C1A7880C3EF9BEE9AED9940C9
:1002A0000DC3EF9BFFEE9AFEED99FDE842F0DC23D3
:1002B000ACF0D0E0FFD0E0FED0E0FDAB8220E71054
:1002C0001BEB60BAEC2CFCEF33FFEE33FEED33FD9D
:1002D0000203F3E803F830E705C0F075F000EF2FF4
:1002E000FFEE33FEED33FD40B830E7C280AA74F86C
:1002F000CC6480CCC86480C8F58204604FC3EB9F97
:10030000F5F0EA9E42F0E99D42F0E89C45F0603C41
:10031000501DE5825FFFE582D313CB5BCBF42B55F9
:1003200082FB50280ABA002409B9002008801DE584
:10033000825BFBE582D313CF5FCFF4C3132F5582CB
:10034000FF50090EBE00050DBD00010CC3EB9FF56B
:10035000F0EA9E42F0E99D42F0E89C45F06007CC4F
:100360004820E701B3EC2275F020800E75F0108074
:100370000575F0087D007E007F003392D530D503EF
:10038000120A29EC334010EF33FFEE33FEED33FD5C
:10039000EC33FCD5F0ED22E5F0247EA2D513CC920F
:1003A000E7CDCEFF22EDD2E7CD33EC3392D52481D9
:1003B0004006E4FFFEFDFC22FCE4CFCECDCC24E0E1
:1003C000501174FF80EDC3CC13CCCD13CDCE13CE22
:1003D000CF13CF0470F030D5DE020A29E9D2E7C985
:1003E00033E833F892D5EDD2E7CD33EC33FC50024D
:1003F000B2D522EC30E7100FBF000C0EBE00080D86
:10040000BD00040BEB6014A2D5EB13FCED92E7FDED
:100410002274FFFCFDFEFF22E480F8A2D574FF13D6
:10042000FC7D80E480EFF920E73624F9500379075A
:10043000E4F42402FBE582158270021583DBF6E00A
:1004400024FB501BE96014E4F0E58215827002156C
:1004500083E004F0B40A08E4F0D9EE7401F00A2253
:10046000C2D522ED33EC3392D5FA602AB4FF33EDD6
:10047000C2E77BFF60067A047988E4227A047991E6
:1004800020D5047A04798C224E614E002B494E46C9
:10049000002D494E4600E47A08F0A3DAFC7B007494
:1004A0000722C083C082ECC0E0EDC0E0EEC0E0EF08
:1004B000C0E0EA75F010A4CAABF075F04DA42BFBB8
:1004C000E435F0FCEA2410FAEB34C5FBEC34D9FC3B
:1004D000EDC2E7FF75F056A4F42411C5F0F434C55D
:1004E0008FF0A42AE5F03BE43CF020E7141205A9C4
:1004F000D0E0FFD0E0FED0E0FDD0E0FC1202518061
:1005000014F4041205A9D0E0FFD0E0FED0E0FDD045
:10051000E0FC120148D082D083E0FAEDD2E7CD337F
:10052000EC332482FBE4C3CF33CFCE33CECD33CDF7
:1005300033DBF37B0775F00A846004F0A31B0AE544
:10054000F0F0A38FF0740AA4FFACF08EF0740AA44C
:100550002CFEACF050010C8DF0740AA42CFDE43597
:10056000F0F0A3DBDE740722ED33EC33600A047095
:1005700003BD8004ECB2E7FC223F80000041200074
:100580000042C80000447A0000461C400047C350A7
:1005900000497424004B1896804CBEBC205A0E1B98
:1005A000CA6753C21C749DC5AEFB60065407601C2D
:1005B00023231205D7EB543860091205C31205D264
:1005C000120148ECF8EDF9EEFAEFCB22EB1205D26E
:1005D00080F1543803241C900579FE93FC0EEE93B1
:1005E000FD0EEE930ECE93FF22C2D530F707B2D5A3
:1005F00063F0FF05F030E70CB2D5F4048463F0FF3C
:1006000005F080018430D502F40422BB0106898202
:100610008A83E0225002E722BBFE02E32289828A1B
:1006200083E49322BB010CE58229F582E5833AF548
:1006300083E0225006E92582F8E622BBFE06E92582
:1006400082F8E222E58229F582E5833AF583E49394
:1006500022BB010989828A83F8E028F0225003270F
:10066000F722BBFE05F8E328F3228A838982F8E4A7
:10067000932822BB010FF8E58229F582E5833AF53C
:1006800083E028F0225009C58229F8E58226F62267
:10069000BBFE09C58229F8E22582F222F8EA258309
:1006A000F583E9932822BB010689828A83F02250D0
:1006B00002F722BBFE01F322F8BB010DE58229F50A
:1006C00082E5833AF583E8F0225006E92582C8F6F0
:1006D00022BBFE05E92582C8F222EF8DF0A4A8F026
:1006E000CF8CF0A428CE8DF0A42EFE22BC000BBE31
:1006F0000029EF8DF084FFADF022E4CCF875F0080E
:10070000EF2FFFEE33FEEC33FCEE9DEC984005FC42
:10071000EE9DFE0FD5F0E9E4CEFD22EDF8F5F0EE0A
:100720008420D21CFEADF075F008EF2FFFED33FDF5
:100730004007985006D5F0F222C398FD0FD5F0EA95
:1007400022C2D5EC30E709B2D5E4C39DFDE49CFCA0
:10075000EE30E715B2D5E4C39FFFE49EFE1206EC2F
:10076000C3E49DFDE49CFC80031206EC30D507C376
:10077000E49FFFE49EFE22C5F0F8A3E028F0C5F058
:10078000F8E582158270021583E038F022A3F8E0C4
:10079000C5F025F0F0E582158270021583E0C838B7
:1007A000F0E822BB010A89828A83E0F5F0A3E02207
:1007B000500687F009E71922BBFE07E3F5F009E3CD
:1007C000192289828A83E493F5F074019322BB0194
:1007D0000789828A8302078D500B09C5F027C7C598
:1007E000F01937C722BBFE0F09F8E3C5F025F0F377
:1007F00019E3C838F3E82289828A83740193F5F0FB
:10080000E49322BB0110E58229F582E5833AF58362
:10081000E0F5F0A3E0225009E92582F886F008E629
:1008200022BBFE0AE92582F8E2F5F008E222E58320
:100830002AF583E993F5F0A3E99322BB01078982A6
:100840008A83020777500B09C5F027F7C5F01937DF
:10085000F722BBFE0D09F8E325F0F3C5F019E338E4
:10086000F322F889828A8374019325F0C5F0F8E4B5
:10087000933822BB010DC58229C582C5833AC58341
:100880000207775011C58229F808E5F026F618F519
:10089000F0E58236F622BBFE11C58229F808E22572
:1008A000F0F5F0F218E23582F222F8E58229F582BD
:1008B000E5832AF58374019325F0F5F0E49338225B
:1008C000BB010A89828A83F0E5F0A3F0225006F783
:1008D00009A7F01922BBFE06F3E5F009F31922F887
:1008E000BB0111E58229F582E5833AF583E8F0E55D
:1008F000F0A3F0225009E92582C8F608A6F022BB31
:10090000FE09E92582C8F2E5F008F222E88FF0A49A
:10091000CC8BF0A42CFCE98EF0A42CFC8AF0EDA486
:100920002CFCEA8EF0A4CDA8F08BF0A42DCC3825B9
:10093000F0FDE98FF0A42CCD35F0FCEB8EF0A4FE99
:10094000A9F0EB8FF0A4CFC5F02ECD39FEE43CFC2E
:10095000EAA42DCE35F0FDE43CFC2275F00875824A
:1009600000EF2FFFEE33FECD33CDCC33CCC5823339
:10097000C5829BED9AEC99E58298400CF582EE9B3E
:10098000FEED9AFDEC99FC0FD5F0D6E4CEFBE4CD5C
:10099000FAE4CCF9A88222B800C1B90059BA002DF6
:1009A000EC8BF084CFCECDFCE5F0CBF97818EF2FAF
:1009B000FFEE33FEED33FDEC33FCEB33FB10D703DE
:1009C000994004EB99FB0FD8E5E4F9FA227818EF87
:1009D0002FFFEE33FEED33FDEC33FCC933C910D7E6
:1009E000059BE99A4007EC9BFCE99AF90FD8E0E4F3
:1009F000C9FAE4CCFB2275F010EF2FFFEE33FEEDC9
:100A000033FDCC33CCC833C810D7079BEC9AE89998
:100A1000400AED9BFDEC9AFCE899F80FD5F0DAE47A
:100A2000CDFBE4CCFAE4C8F922C3E49FFFE49EFEC8
:100A3000E49DFDE49CFC22EB9FF5F0EA9E42F0E988
:100A40009D42F0EC6480C864809845F022EB9FF5ED
:100A5000F0EA9E42F0E99D42F0E89C45F022E86011
:100A60000FECC313FCED13FDEE13FEEF13FFD8F1F3
:100A700022E86010ECA2E713FCED13FDEE13FEEF8D
:100A800013FFD8F022E8600FEFC333FFEE33FEED23
:100A900033FDEC33FCD8F122BB010789828A830243
:100AA0000E005005E9F8020DF4BBFE05E9F8020E50
:100AB0000C89828A83020E18BB010789828A83020D
:100AC0000B165005E9F8020E5EBBFE05E9F8020BB5
:100AD0002222BB010DE58229F582E5833AF58302E6
:100AE0000B165007E92582F8020E5EBBFE07E925CA
:100AF00082F8020B2222BB010789828A83020E350B
:100B00005005E9F8020E28BBFE05E9F8020E4189FE
:100B1000828A83020E4EECF0A3EDF0A3EEF0A3EF79
:100B2000F022ECF208EDF208EEF208EFF222A882D1
:100B30008583F0D083D082120B45120B45120B45F2
:100B4000120B45E473E493A3C583C5F0C583C8C500
:100B500082C8F0A3C583C5F0C583C8C582C822A4D6
:100B60002582F582E5F03583F58322F8E0FBA3A327
:100B7000E0F925F0F0E582158270021583E0FA387D
:100B8000F022EBF0A3EAF0A3E9F022BB010789828F
:100B90008A83020E7C5005E9F8020E6ABBFE05E965
:100BA000F8020E8589828A83020E97BB011A898218
:100BB0008A83D0F0D0E0F8D0E0F9D0E0FAD0E0FBC2
:100BC000E8C0E0C0F0020B825016E9F8D083D08272
:100BD000D0E0F9D0E0FAD0E0FBC082C083020E730F
:100BE000BBFE16E9F8D083D082D0E0F9D0E0FAD08D
:100BF000E0FBC082C083020E8E22BB010DE582297C
:100C0000F582E5833AF583020E7C5007E92582F8E8
:100C1000020E6ABBFE07E92582F8020E85E58229ED
:100C2000F582E5833AF583020E97BB0120E5822920
:100C3000F582E5833AF583D0F0D0E0F8D0E0F9D042
:100C4000E0FAD0E0FBE8C0E0C0F0020B825018E907
:100C50002582F8D083D082D0E0F9D0E0FAD0E0FB52
:100C6000C082C083020E73BBFE18E92582F8D083D0
:100C7000D082D0E0F9D0E0FAD0E0FBC082C083029D
:100C80000E8E22D083D082F8E49370127401937098
:100C90000DA3A393F8740193F5828883E47374021F
:100CA000936860EFA3A3A380DFD083D082F8E4939E
:100CB0007012740193700DA3A393F8740193F582DD
:100CC0008883E473740293B5F0067403936860E953
:100CD000A3A3A3A380D8EF4E6012EF60010EEDBB7B
:100CE000010B89828A83F0A3DFFCDEFA2289F050AF
:100CF00007F709DFFCA9F022BBFEFCF309DFFCA922
:100D0000F022E709F608DFFA8046E709F208DFFA81
:100D1000803E88828C83E709F0A3DFFA8032E30902
:100D2000F608DFFA8076E309F208DFFA806E88823F
:100D30008C83E309F0A3DFFA806289828A83E0A3CF
:100D4000F608DFFA805689828A83E0A3F208DFFA88
:100D5000804A80D280FA80C680D4806580F280315B
:100D6000801080A680EA809A80A880DA80E280CA1B
:100D7000803189828A8363A20188828C8363A20185
:100D8000E493A363A201F0A363A201DFF3DEF18089
:100D90000B89828A83E493A3F608DFF9ECFAA9F0C1
:100DA000EDFB2289828A8363A20188828C8363A2FD
:100DB00001E0A363A201F0A363A201DFF4DEF280ED
:100DC000DB89828A83E493A3F208DFF980CE88F07E
:100DD000EF60010E4E60C588F0ED2402B4040050AF
:100DE000BBF582EB2402B4040050B12323458223D7
:100DF000900D5273E6FC08E6FD08E6FE08E6FF22C9
:100E0000E0FCA3E0FDA3E0FEA3E0FF22E2FC08E299
:100E1000FD08E2FE08E2FF22E493FC740193FD74F6
:100E20000293FE740393FF22E6FB08E6F908E6FA54
:100E300008E6CBF822E0F8A3E0F9A3E0FAA3E0FB90
:100E400022E2FB08E2F908E2FA08E2CBF822E49396
:100E5000F8740193F9740293FA740393FB22ECF68D
:100E600008EDF608EEF608EFF622E6FB08E6FA08CB
:100E7000E6F922EBF608EAF608E9F622E0FBA3E041
:100E8000FAA3E0F922E2FB08E2FA08E2F922EBF227
:100E900008EAF208E9F222E493FB740193FA74027F
:100EA00093F922424F4F5400434C52414C41524D12
:100EB0000044554D50004650415241004650474D68
:100EC000004C424F4F54004C495354004C4F470084
:100ED00050415241005245534554005250415241F5
:100EE0000052554E0053544F5000565354415455E0
:100EF000530000414C474F325700414C474F335746
:100F000000414C474F345700414C474F3557004143
:100F1000504D0041504D5153484F540041504D5396
:100F2000484F540041504D5700424F4F535434578F
:100F30000043414E004341505653455400434754EB
:100F4000454D5000434847564552520043484B5385
:100F5000455249414C0043484D41534B004348568C
:100F60004F4C540044410044420044504F4E004511
:100F700043484F0046414E440046414E49004641D9
:100F80004E500046505246004845415444004845A2
:100F900041544900484541544D4158004845415449
:100FA0005000484F55525300494E43325700494E66
:100FB00043335700494E43345700494E4335570099
:100FC0004C50474D004C5057004C53455249414CF2
:100FD000004C56455253004C564D4158004C564D0E
:100FE000494E004D45414E3257004D45414E335715
:100FF000004D45414E3457004D45414E3557004D4B
:101000004F44454C004E5052464C4F57004F4646B9
:101010005345545F3357004F46465345545F34574A
:10102000004F5054494F4E5F3357004F56454E5373
:101030000050415353574F524400504432570050D0
:1010400044335700504434570050443557005044FF
:101050004D32570050444D33570050444D345700E3
:1010600050444D355700505246005052464D41585D
:10107000005052464D494E005053455249414C0094
:101080005053564552530050554D500050574D4106
:10109000580051444C590051444C59320051444C71
:1010A000594F0051504F54310051504F543200515C
:1010B000504F54330051504F54340051535041520B
:1010C000310051535041523200515350415233007C
:1010D000515353005153564F4C54005153570052E3
:1010E000484F5552530053434754454D50005353B6
:1010F000455249414C005353484F540053535749AC
:10110000544348005354415445005354415455539B
:101110000054454D5031460054454D503153005414
:10112000454D5032460054454D5032530054454DC4
:101130005032570054454D5033460054454D5033BE
:10114000530054454D5033570054454D50345700CB
:1011500054454D5035570054454D505F434152441E
:1011600032570054454D505F434152443357005469
:10117000454D505F4341524434570054454D505FF4
:101180004341524435570054494D45325700544964
:101190004D4533570054494D4534570054494D454A
:1011A00035570054524947005553484F5400256263
:1011B000752530396C7500256C75004C4F472049FA
:1011C0005320454D5054590A00200A00415420250F
:1011D0006C753A2530326275203A20002573203D27
:1011E00020000A002573203D20256C753A253032F9
:1011F00062750A0025730A004E6F6E650025732024
:101200003D20512D534D41525420252E34730A0058
:101210005354415445203D2025640A002573203D48
:10122000202562750A002573203D202562640A008E
:101230002573203D2025732562642E2562640A00F3
:101240002D002573203D2025730A002573203D20A5
:1012500025750A002573203D2025640A002573208A
:101260003D2025470A004F4B004552524F52004542
:1012700052524F52203A20554E4B4E4F574E00453A
:1012800052524F52203A2042414420504152414D47
:10129000004552524F52203A204F5554204F46207D
:1012A00052414E4745004552524F52203A20494E36
:1012B0005445524C4F434B004552524F52203A2016
:1012C0004E4F54205245414459002573203A200086
:1012D0000EA3050EA80E0EB10D0EB6080EBC090E1B
:1012E000C1060EC70A0ECC0B0ED0070ED5100EDBB2
:1012F0000C0EE1020EE5030EEA040EF2FF090EF2F7
:101300000000FFB8000EF3010DFF80000EFA010D82
:10131000FF81000F01010DFF82000F08010DFF8307
:10132000000F0F010FC024050F13020CFF84050FDF
:101330001C020CFF06000F240105FFA7010F290165
:101340000FFF85000F310105FF25050F35020FFF47
:1013500017070F3D0205FF26050F44020DFF000091
:101360000F4C010FFF27000F56010C0328050F5DDE
:101370000205FF29050F64020FFF2A050F67020F00
:10138000FF2B000F6A010F0318000F6F010FFF1DE5
:101390000B0F74040CFF070B0F79040CFF080B0FE5
:1013A0007E040CFF09000F83010D030A0B0F880454
:1013B0000CFF860B0F8E040CFF87000F94010CFFAF
:1013C000880B0F9C040CFF89090FA20A0D031E0253
:1013D0000FA8010CFF8A020FAE010CFF8B020FB4A5
:1013E000010CFF8C020FBA010CFF8D000FC0010D24
:1013F000032C000FC5010F7F19090FC9050D038EBE
:10140000070FD10205FFA8050FD7020DFF0B050F2F
:10141000DD020DFF0C050FE3020DFF8F050FEA0241
:101420000DFF90050FF1020DFF91050FF8020DFF62
:1014300092090FFF040D0393001005010C030D0426
:10144000100D010FFF9F021017010DFF94001021D6
:10145000010D039509102B0105FFA40A1031080F97
:10146000FF2D05103A0205FFA905103F0205FFAA4E
:101470000510440205FFAB0510490205FFAC05103D
:101480004E0205FFAD0510540205FFAE05105A02CD
:1014900005FFAF0510600205FFB0061066020F03DE
:1014A0001A06106A020D030E061071020D030F09D1
:1014B0001078050D03010710800205FF2E0010872C
:1014C000010CFF2F00108C010DFF10001092010F76
:1014D0007F1B001097010D7F1C08109D020F7F12CB
:1014E0000010A3010DFF020010A9010DFF03001061
:1014F000AF010DFF040010B5010DFF050510BB0283
:101500000F7F130510C2020F7F140510C9020F7F51
:10151000150010D0010F70300010D4010DFFA00095
:1015200010DB010FF0310910DF0A0D03200710E670
:10153000020DFF110910EE050D03960910F6050DB9
:1015400003A50010FC010F03210911040105FF345C
:1015500009110A0A05FFB80711110205FFB10711A9
:1015600018020FFFA107111F0205FFB20711260283
:101570000FFFA207112D020DFF970711340205FF7F
:10158000B307113B020FFFA3071142020DFF98079B
:101590001149020DFF99071150020DFF9A071157CB
:1015A0000205FFB40711630205FFB507116F0205BD
:1015B000FFB607117B0205FFB7051187020CFF9BE1
:1015C00005118E020CFF9C051195020CFF9D051163
:1015D0009C020CFF9E0911A3010F03160911A80517
:1015E0000F03A60000FF800000800000FF007FFFC7
:1015F000FF7FFFFF1266FF1269FF126FFF127FFF6E
:101600001291FF12A6FF12B80001010000010101B2
:1016100000009003EB7480F0E49003EFF0A3F090EF
:1016200003F2F0A3F0A3F0A3120B2E000000009031
:1016300003F9120B2E00000000E49003FDF0A3F06C
:10164000126DF2A3E4F0A3F0A3F01246927A0379AC
:10165000FF7F0A121C789003FFE0C330E001D392B1
:10166000019003EBE064806003021C2412AD46E5A8
:101670004BC3941D5030900403A3E0FAA3E04A70DA
:1016800009129F59900403126D73900400126D5259
:10169000EA494B60DA900400A3A3E012A10CEF70BA
:1016A000CE126DF280C9E54B70FC7B007A00793177
:1016B000AD3C12A5DC7B007A0079001258A19004A1
:1016C00006EFF070055329FD8006433502432902D9
:1016D000121C459003F2E004F0E0B40304E4F0B21D
:1016E00085900403126D52EA494B700302178B1266
:1016F00007A3900406F0900004120803FF9004076B
:10170000E5F0F0A3EFF0900406E0FF7E00129AA847
:101710009003F9126D5F900406E0FFE4FCFDFEEB20
:101720002FFFEE3A126DE19003F9120B169003F5BC
:10173000126D5FC000C001C002C003900403126DAF
:1017400052900002120803FFE4FCFDD003D002D047
:1017500001D000EB2FFFEA35F0126DE19003F51296
:101760000B16900403126D52E4F5F01208C09004B9
:1017700003126D52900002126E10900004126E104F
:10178000E4FF127167900403E48004E4900406F01F
:10179000A3F0A3F0900407E0FEA3E0FF9003FEE0B7
:1017A0002FF09003FDE03EF07B017A03795E900418
:1017B00006E0FD1266EA20011ED39003FEE09400CD
:1017C0009003FDE094004007433320E4F0A3F0EFE2
:1017D00060394333208034900407E07002A3E07046
:1017E00003EF600DE4FF12AD69126DDA12A781807C
:1017F00006126DDA12A63C12AE2FEF700E126DDAE1
:1018000012ADF4EF60057F0112AD697A0379F17FC3
:1018100028121C787FA012934F900406EEF0A3EFDD
:10182000F0EE540FFE900406F0A3EFF012AC5290CD
:101830000408EEF0A3EFF07B017A0479087F297E9B
:1018400000125E057A04790A7F17121C807B017AE8
:1018500004790CE4FFFE1270979003F4E0C3943215
:101860005005E004F0803A90040CE0FEA3E0900400
:101870000A126DAA2FFFEC3EFE900408E0FAA3E0E6
:10188000FBD39FEA9E501590040CE0FEA3E0FFEB13
:101890002FFFEA3EFED3ED9FEC9E4005433580804E
:1018A0000353357F7F0312A1487F011263CB90035E
:1018B000EEEFF07B007A007937129F1AEF60051285
:1018C0009EDA80151267E812543DEF700C9003EC1D
:1018D000E0B48005A3E0547FF012ACF69003ECE096
:1018E000FF30E704A3F0801FEFD39410400890036B
:1018F000ED74FFF08011EFD394049003ED40057474
:101900003FF08003740FF0E53530E7099003F1E014
:101910007003126D6B9003EEE0540960207F2F126C
:101920001C39126D6BE53420E30E30E2069004069C
:10193000E07005E53530E005E49003EDF09003EE4E
:10194000E05406C36001D392003000557F0112AD10
:10195000DC9003EEE0FD30E119900357E004F0E085
:10196000D394144015433540126D6BE4900357F047
:101970008008E4900357F05335BFED30E21990032F
:1019800058E004F0E0D394144025433520126D6BE9
:10199000E4900358F08018E4900358F05335DF804A
:1019A0000EE4FF12ADDCE4900358F0900357F09082
:1019B00003ECE064087020126DD312A63C126DD3C4
:1019C00012ADF4EF60089003EC7410F0800F9003F8
:1019D000EDE0540FF08006126DD312A7819003EC56
:1019E000E0B404062000037408F09003ECE06420E7
:1019F000704A12898EEF60447F06121C397A04798E
:101A0000087F84121C80900408E0FEA3E09003F598
:101A1000126D5BC3120A4D4012900406E0FEA3E073
:101A20009003F9126D5B120A4D50099003EDE054DA
:101A30003FF080129003EC7440F0800A9003F5129E
:101A40000B2E000000007B017A0379F37F247E00D7
:101A50001270979003F3E070079003EDE0547FF06D
:101A6000E53330E503126D6BE53230E0079003EDAE
:101A7000E0540FF0E53520E105E53430E50790034B
:101A8000EDE05401F0E53630E306126D6B126E1D89
:101A9000E53820E40FE53A20E40AE53820E305E5DF
:101AA0003930E103126D6BE53630E205E49003ED69
:101AB000F0126DFE7008EE6005C313F080F3121C87
:101AC00053E4F5319003ECE0FF54C060034332026D
:101AD000EF54FC60034331809003ECE054F060036A
:101AE0004331109003ECE054E0600343310890036D
:101AF000CAE0FF30E003433140EF30E103433120DF
:101B00007F011271679003ECE054FC70059003F0C4
:101B100004F0E54BC3940C500D12A3B212AE507FEB
:101B20000112716780EC121C45129459E53620E3CE
:101B300008E53A20E70330E606126D6B126E1D12BF
:101B4000AD74EF6007E49003EFF080219003EFE0C5
:101B500004F0E064647016F07F27FE121C6E90049F
:101B600006E06009433301126D6B126E1D90040094
:101B7000126D52EA494B7009129FD7900400126D02
:101B8000731261961295581283BD12A6CAE4FF1211
:101B90009B7B7B017A0379EC7F347E001270971275
:101BA0006DFE7008EE6005C313F080F3121C5390B5
:101BB00003ECE0FF54C0700C5332EF5332F7533252
:101BC000FB5332FDEF54F070065331EF5331F712EF
:101BD000AE557B007A007931AD3C12A66C7F327E27
:101BE00000121C6E900406E0601912AA78124206D8
:101BF000EF7010900406F07B017A0479067F32FEC4
:101C0000125E0512A95C9003ECE0FF70069003EBF6
:101C10007440F0EF540370030216619003EB74609C
:101C2000F00216619003F0E0600612A5AB4333109A
:101C300012A1C09003EBE0FF227B017A0479067EBB
:101C400000127097227B017A0379EC7F347E0012B8
:101C50007097227B017A0379EC7F347E00125E0557
:101C60007B017A0379ED7F237E00125E05227B01E2
:101C70007A047906127097227B017E0012709722F7
:101C80007B017E0012709722900417123FD29004BD
:101C900015EEF0A3EFF020E70E9004151240B850B7
:101CA0000612414BEE801A900415E0FEA3E0FF30CF
:101CB000E71D12413B5018EF547F90CF0112414F66
:101CC000E4124042AF8290041EF0A3EFF080037F45
:101CD000002290041EE0FEA3E0F5828E837402933E
:101CE00014B414004003022205901CF775F003A4FD
:101CF000C58325F0C58373021D33021E05021D3600
:101D0000021D4A021D63021D7C021D99021DBC02B8
:101D10001DDB021DF002210502211A0221390221D8
:101D20005202217102218D0221A90221BB0221CD83
:101D30000221EA7F0122900417123FC1F912060B1B
:101D400054FE70030222057F0022900417123FC147
:101D5000F91207A3D39410E5F0942750030222054B
:101D60007F0022900417123FC1F91207A3D394BC3D
:101D7000E5F0940250030222057F0022900417121E
:101D80003FC11241F86480947B400BD3EF64809490
:101D9000E450030222057F0022900417123FC11273
:101DA0004092940CEE6480947E400ED3EF94F4EE57
:101DB0006480948150030222057F00229004171250
:101DC0003FC112409294B8EE940B400CD3EF94A014
:101DD000EE940F50030222057F0022900417123F59
:101DE000C1F912060BD3946450030222057F00222E
:101DF000900417123FC1F912060BD394035003024B
:101E000022057F0022900415E07004A3E06419709D
:101E10004F900417123FC1F912060B900424F07A78
:101E20000479237F101222C9900423E0FFA3E0FE6F
:101E3000D39F500BEE94C85006EEC3948C50037F92
:101E400000221222937A0479227F1C122224900409
:101E500024E090042012227940030222057F002210
:101E6000900415E07004A3E0641B70269004171220
:101E70003FC11241A71222931222397F1C12225F06
:101E8000900420E090042312227940030222057F6F
:101E90000022900415E07004A3E0641C703B9004E1
:101EA00017123FC11241A7C3943250037F00227F13
:101EB0001812225F7A0479217F19122224900421BA
:101EC000E0FF900420E0FD900423E0900422122221
:101ED000B940030222057F0022900415E07004A39C
:101EE000E064187040900417123FC11241A76008C7
:101EF000E0640160037F00227A0479217F191222B5
:101F0000C97F1C1222AD7F1B1222A1900421E0FF89
:101F1000A3E0FD900420E09004231222B9400302C4
:101F200022057F0022900415E07004A3E064107085
:101F30002F900417123FC1F912060B900421F012E2
:101F40002239900420E0FFA3E0FEC39F400FEED3B0
:101F500094C85009EEC3948C40030222057F0022EE
:101F6000900415E07004A3E0641770327B017A04DA
:101F7000791A7F0CFE1270977B017A04791C7F0B13
:101F80007E00127097900417123FC11240921241C6
:101F900089400812417350030222057F00229004F9
:101FA00015E07004A3E0640B702A7F0C12224790A6
:101FB0000417123FC1F91207A3FFAEF0124173508C
:101FC00010EF94BCEE940250081241895003022293
:101FD000057F0022900415E07004A3E0640C701EDD
:101FE0007F0B122247900417123FC11240921241F8
:101FF00074400812418940030222057F00229004A8
:1020000015E07004A3E0641A7033900417123FC106
:10201000F91207A3FF900424E5F0F0A3EFF01222D9
:102020006B7F0E1222A1124155400F900423E09DB8
:10203000900422E09C40030222057F0022900415B8
:10204000E07004A3E0640F703D900417123FC112CA
:1020500022087F0E1222AD1241B9900421E09F9018
:102060000420E09E4008EF940AEE940050037F00A5
:10207000221241B9900423E09F900422E09E400385
:10208000022205EE8041900415E07004A3E0640E86
:102090007049900417123FC112220812226B12419C
:1020A000554009D3ED94D0EC940740037F00229073
:1020B00004221241BCED9FEC9E4003022205A3E0E6
:1020C000FFA3E0900422CFF0A3EFF07B017A047924
:1020D000227F1A7E00125E05022205900415E07030
:1020E00004A3E0640D6003022205900417123FC1AF
:1020F000F912060BFF900420F07464C39F400302A2
:1021000022057F0022900417123FC1F912060BD35B
:10211000940450030222057F0022900417123FC14D
:1021200012409294CCEE9410400CD3EF9470EE9445
:102130001750030222057F0022900417123FC1129C
:1021400041F894024009EFD3946450030222057FC2
:102150000022900417123FC1124092940AEE94009C
:10216000400CD3EF94E8EE940350030222057F0065
:1021700022900417123FC1124092940AEE9400403C
:1021800009D3EF94D0EE9407407B7F002290041790
:10219000123FC112409294C8EE94004009D3EF94CC
:1021A000E8EE9403405F7F0022900417123FC1F9CC
:1021B00012060BD39432404D7F0022900417123F39
:1021C000C1F912060BD394B4403B7F002290041750
:1021D000123FC11241F864809462400BEF6480F8B2
:1021E000741E648098501E7F0022900417123FC115
:1021F000F912060B900420F0E0FF54036F7001E425
:1022000060037F00227F0122F91207A3FF900424BC
:10221000E5F0F0A3EFF07B017A0479227F1A7E00CB
:10222000127097227B017E001270977B017A0479ED
:10223000207F1B7E00127097227B017A0479207F19
:10224000197E00127097227B017A04791AFE1270AF
:10225000977B017A04791C7F177E00127097227B8E
:10226000017A0479227E00127097227B017A047928
:10227000207F0F7E0012709722FFE0FD900422E085
:10228000FB900421E0900429F012A842C3EF64807F
:102290009480227B017A0479217F187E0012709746
:1022A000227B017A0479227E00127097227B017AC8
:1022B0000479207E0012709722FBE0900429F0122E
:1022C000A842C3EF64809480227B017E0012709745
:1022D00022E542242FF582E43404F583E00542220E
:1022E00090042C30090390042FE475F001120B6B5D
:1022F00002060B2002E97F2ED2028018EF540F2431
:1023000090D43440D4FF30060BEF24BFB41A0050F1
:10231000032461FFE543600215430546E54670026C
:10232000054530090E90042CE475F001120B6BEF9B
:102330000206A602A7CF7403D2098003E4C209F5FE
:102340004290042C120B82E4F543F545F546E54333
:1023500060077F2012231480F57544FFC203C20278
:10236000C204C205C207C208C20A1222E0FF700DF1
:102370003009057F00122325AF46AE4522B4255F04
:10238000C2D5C2061222E0FF24D0B40A00501A754A
:10239000F00A784330D50508B6FF0106C6A426F634
:1023A00020D5047002D20580D924CFB41A00EF5092
:1023B00004C2E5D206022617D20380C6D20280C02C
:1023C000D20480BCD2D580BAD20780B47F20122339
:1023D000142004077401B5430040F11222D1FF120A
:1023E000231402234ED20AD20880951222D1FB1266
:1023F00022D1FA1222D1F94A4B700679157A277B3D
:10240000FF20042EE543602A7E008E827583001231
:10241000062460060EEE654470F0C2D5EBC0E0EA1B
:10242000C0E0E9C0E0EE122678D0E0F9D0E0FAD0C2
:10243000E0FB12060BFF60AAEBC0E0EAC0E0E9C0D7
:10244000E0122314D0E02401F9D0E03400FAD0E007
:10245000FBE5440460DCD544D98087D20480A21215
:10246000265A60F7E544700104120426A944600D61
:10247000E544600914F544122702EF60F3EA30E7FF
:1024800002F404C3995079EAF425440430E701E4E6
:1024900004F544800D12265A60C1EA054425441211
:1024A0000426EA90045BF030E701E4254404D544B7
:1024B0000420070114122678E4C0E01227029004D9
:1024C0005BE0601320E70714F01222FC802204F086
:1024D000D0E014C0E07F001222FCE5446007122225
:1024E000F31544800B3007031222F3D0E002234E91
:1024F000D0E00480C412265A609EE54404120426EB
:1025000090045BEAF0E54420070260010424041211
:10251000267874FF04C0E01227021222FCE5442052
:10252000070260031222F3D0E0B544E87F4512238E
:102530000690045BE07F2B30E7047F2DF404C0E0BD
:10254000122314D0E075F00A84C0F01222FDD0E00E
:102550001222FD02234E791080027908C208C20AB5
:102560008008D2D5790A8004790AC2D5E54404707E
:1025700002F544E4FAFDFEFF1222D1FC7B082003A1
:10258000131222D1FD7B1030020A1222D1FE122238
:10259000D1FF7B20EC3382D592D55013C3E43002B7
:1025A000069FFFE49EFEE42003039DFDE49CFCE403
:1025B000CBF8C203EC700CCFCECDCCE824F8F87089
:1025C000F38017C3EF33FFEE33FEED33FDEC33FC46
:1025D000EB33FB994002FB0FD8E9EB300305F8D051
:1025E000E0C448B203C0E00AEC4D4E4F78207B00B7
:1025F00070C2EAB5440040BCC0E012267AD0F0D0E8
:10260000E0200304C4C0E0C4B203C0F01222FDD035
:10261000F0D5F0EB02234E120C8323EB53255658D2
:1026200023BC4C23B842255A4F25624425624923D6
:10263000D14325685524954624F545245F47273521
:102640005023C02D23C42E23E72B23C82323E520AA
:10265000271E2A238048000023DFE544B4FF0375CA
:1026600044061222D1FC1222D1FD1222D1FE1222E6
:10267000D1FF900454020463790AA2D520051430D6
:102680000709B910020404B9080104A2D520080200
:102690005001042004689204B543005034C0E07F28
:1026A000203005197F30A20472087207500F1226DD
:1026B000D1C204C208C207C20A7F30800F300703AC
:1026C000E9C0E0122314300703D0E0F9D0E0B543AD
:1026D000CC3007177F30B9100C1223147F58300606
:1026E000077F788003B908031223143004057F2D77
:1026F0000223147F20200AF87F2B2008F322920463
:1027000080CF7F00B40700500B2454F582E43404DA
:10271000F583E0FF22286E756C6C2900D20312222B
:10272000D13003F8C203784330D50108F602238084
:102730002D504349581222D12403B405004001E42E
:1027400090273093122305743A122305D20575435E
:10275000040225569003EB7460F0E49003F8F01245
:10276000A6F99003EBE064606003022AA312AD4671
:10277000E54BC3941D40F9E54B70FC7B007A007972
:1027800031E4FD12A5DC122AD89003F8E004F0E051
:10279000B40304E4F0B2857B017A0379EF1258A107
:1027A0009003EEEFF07A0379F97F26122AE6900380
:1027B000F27401F09003EEE0FF700B5329FD9003DB
:1027C000EC7402F0800FC3EF648094804335029074
:1027D00003EC7401F07F0112A148E4FF1263CB9077
:1027E00003F1EFF07B007A007937129F1AEF600552
:1027F000129EDA80031267E812ACF69003ECE0FF59
:10280000B40206A37407F0800AEFB401069003ED4A
:102810007401F09003F1E0540960267F2F122AB171
:1028200012AD82E53420E30E30E2069003F7E0704B
:1028300005E53530E00BE49003EDF09003EB7440D8
:10284000F0E52930E1079003EDE05401F0E5283090
:10285000E50C9003EDE05401F0E49003F2F0E5366E
:1028600020E308E53A20E70330E60312AD7FE532C6
:1028700030E0079003EDE0540FF0E53820E4082045
:10288000E305E53A30E40812AD82E49003F2F0E5A6
:102890003930E10312AD82E53630E205E49003ED14
:1028A000F07A0379FD7F28122AE6E53320E5192026
:1028B000E016E53530E7069003FDE0600BE53520D6
:1028C000E60620E50330E10312AD829003EDE0FF60
:1028D0009003ECE0FE5F7008EE6005C313F080EB40
:1028E000122ABDE4F5319003ECE0B401099003F243
:1028F000E060034331047F16122AB19003F7E0FF32
:1029000030E003433140EF30E10343312012AACCE1
:10291000E54BC3940D500812A3B212AE5080F112D1
:102920002AD8129459E53630E30312AD7F1293A8EA
:102930007F217E0012911FEF600912ACD7EF600378
:1029400012AA959003ECE0FF7E0070027E019003D6
:10295000EDE05E600CEF60099003ECE0C313F080E3
:10296000E2122ABD12AE559003ECE0FF700890030E
:10297000EB7440F0800BEF54FC60069003EB748026
:10298000F07F337E0012911FEF604612ACD7EF60EC
:10299000407A0379F77F33122AEE9003F7E0FFB411
:1029A000020B9003EB7412F0433C40801DEFB40126
:1029B000089003EB7411F08011E49003F7F07B01B1
:1029C0007A0379F77F33FE125E057F337E00128D26
:1029D0009C7B007A007931AD3C12A66C7A0379FEBB
:1029E0007F32122AEE9003FEE0601912AA7812429A
:1029F00006EF70109003FEF07B017A0379FE7F32C0
:102A0000FE125E059003ECE05403606A9003F2E06E
:102A10006064C2A37B017A0379F37F117E00127098
:102A2000979003F3E0FEA3E0FF9003EFE0FCA3E048
:102A3000FD124EE19003F5EEF0A3EFF0F47002EE1C
:102A4000F460559003F5E0FEA3E0FF12A8D39003D5
:102A5000F5E0C4F854F0C868FFA3E0C4540F4890F0
:102A600003FBCFF0A3EFF07B017A0379FB7F2B7E92
:102A700000125E0580229003ECE054FC7018900375
:102A8000F3E0FEA3E0FF12A44D7F007E1012AA1E09
:102A9000E4FFFE12A8D3D2A312A95CE4FF1274973C
:102AA0000227629003EBE0FF12A9DE9003EBE0FF48
:102AB000227B017A0379F77E00127097227B017ADC
:102AC0000379EC7F347E00125E057B017A0379ED99
:102AD0007F237E00125E05227B017A0379EC7F342E
:102AE0007E00127097227B017E00127097227B017C
:102AF0007E0012709722127269AD82900413F0A3C7
:102B0000EDF0788FE2700218E26003022D8E1272EF
:102B1000CF74FFA3F0A3F01272D640317864E26460
:102B20008094EA4003022C17E53F24F1601024034F
:102B3000701B12723774049320E315022C17127263
:102B400037740493540A640A6006022C17022C1787
:102B50007A047911127262127097900411E0700277
:102B600004F0127237740593FF900411E0FE5F7059
:102B700006788D04022E457864E224FB7003022C53
:102B80003E24F17003022CF324F77003022CFF247F
:102B9000D17003022C1E24FE7003022C1E1470033D
:102BA000022CFF24E77003022D4224366003022D1D
:102BB0005F900412740AF07866E2FFB44806E024DD
:102BC00014FD8006900412E014FD900412EDF0EF65
:102BD000B43006E02405FF8006900412E014FF9054
:102BE0000412EFF07867E27005E004FF80069004BD
:102BF00012E014FF900412EFF0E0FFB41E0B753FDB
:102C00000C78667401F2022D76EFB40F0A753F0F4F
:102C1000E47866F2022D76788D7401022E4578668E
:102C2000E26012EE64106007788D7401022E454355
:102C30003108022D765331F75332FD022D76E532FD
:102C400020E107788D7401022E457866E2640A70EF
:102C5000237B017A0479107FA7FE127097122E4F02
:102C60007866F2900410E0640A6003022D76433C1B
:102C700010022D767866E2604A122E4F6007788D3A
:102C80007401022E457866E2900412F0E0FFB4036E
:102C90000B4332104332084332048018EFB4020869
:102CA000433210433208800CEFB4010543321080E8
:102CB00003022D3C9004117480F07A047911127291
:102CC00088802A7B017A0479127F247E0012709713
:102CD000900412E07003022D765332EF5332F75313
:102CE00032FBE4F07B017A0479127F24FE125E0548
:102CF000022D767866E224FF920212001680777821
:102D000066E26452703608E26445703008E264534B
:102D1000702A08E26445702408E26454701E08E2D8
:102D2000701A7866F208F208F208F27864E2B41DCC
:102D3000047F0180027F0212993E803A788D7401EF
:102D4000802C7866E2FF30E0054331408003533148
:102D5000BFEF30E105433120801C5331DF80171273
:102D6000723712728F121C88EF700B788D04F27814
:102D70007A7404022E48127237740693788E30E704
:102D800007E4F20804F28006E4F2087403F2788F94
:102D9000E26401700218E2704E127237740693FFFB
:102DA0007E00129780AE07900413E0FCA3E0F5824A
:102DB0008C83AD0612729112761AEF3395E0FE9075
:102DC0000520F0A3EFF0C3EE64809480400B788E72
:102DD000E4F274021272CC800E90051FE004F070D1
:102DE0000690051EE004F0788FE26402700218E29B
:102DF0007027900520A3E0FF12A57A1272D6400B2F
:102E0000788EE4F274031272CC800E90051FE004F9
:102E1000F0700690051EE004F0788FE26403700203
:102E200018E2700E12723712728F125E051272CE95
:102E3000FF22D390051FE0941090051EE0942740D8
:102E40000B788D7401F2787AF27F00227FFE227B6C
:102E5000017A0479127F247E00127097900412E0A8
:102E600022900419EDF0A3EBF0900418EFF0120C8F
:102E7000832FD41D2EEF2431272C306C312EEF3EC2
:102E80002FD44F2EEF512E9952315A542F6C682E59
:102E9000996930286D000031AB90041A12322EC0AF
:102EA00003C002C0011231F71231D7F0D001D002B5
:102EB000D0031231AEEFF090041AE02FFF90041906
:102EC000E0FD128ED6900420E02FF0E0FF90041A6F
:102ED000E02FFF7A00F97BFEC0031232907411F0EC
:102EE000A374E2F0D0031231AEE02FF0022FCB90AA
:102EF0000418123238900421F0900419E090041B59
:102F0000F090041A12322EC003C002C00112329097
:102F10007411F074DC123462EF1231D7F0D001D0AA
:102F200002D0031231B5EFF0E4900423F0900421B5
:102F3000E0FF9004231232B9502A90041BE02E12B5
:102F40003415E0FFC4540F2430FE12339CEEF2EF30
:102F5000540F2430FFA8051233B2EFF2900423E09F
:102F600004F080C91232C5740AF2805F12341190E5
:102F7000041A12322EC003C002C0011231F71231FE
:102F8000D7F0D001D002D0031231B5EFF090042277
:102F9000E0FF90041A30E0081233AD7445F2800669
:102FA0001233AD7449F2EF90041A30E10DE0F8905D
:102FB00004201232DA7445F2800BE0F890042012FB
:102FC00032DA7449F21232C5740AF2E0FF90041A40
:102FD000E002312290041912336990041C120B167E
:102FE00090041C123403900422EFF090041C12345D
:102FF0008690041C120B1690041A12322EC003C0C5
:1030000002C0011232907411F074E41232031231D2
:10301000D7F090041C123219900435120B1690044C
:1030200022E0900439023153900419E090041BF01F
:10303000F8E2640190041A701412322EC003C00228
:10304000C0011232901233F4123312801912322E50
:10305000C003C002C0011232901233F412320912BE
:103060000B5FEE75F0071231DE023153123411900E
:10307000041A12322EC003C002C0011231F71231FD
:10308000D7F0D001D002D003122336900421EFF004
:10309000900420F09004237432F0900423E0FFC3E6
:1030A000648094B6503D900422E0FE30E028900405
:1030B00020E0FDA3E06D601190041AE0F890042078
:1030C000E004F0E82DF8742CF212339CEFF2A8051E
:1030D0001232DA7457F2EEC313900422F0A3E00424
:1030E000F080B7900421E0FF900420E0B507219024
:1030F000041AE02FF97A007BFEC00312329074119B
:10310000F0A374F8F0D003122336900420E02FF0DF
:1031100090041AE0FEF89004201232DA740AF2E009
:10312000FFEE2FF8E4F22290041A12322EC003C0F0
:1031300002C0011232907411F0A374FD1232041215
:1031400031D7F0900419E0F91B900435EBF0A3E4BB
:10315000F0A3E9F0D001D002804C900419E0F8E22D
:10316000FF900424F0E4A3F0EF601C900425E00439
:10317000F0900424E0FF7E017801088002C313D898
:10318000FC900424F070E490041A12322EC0031252
:1031900032907412F0A37410F0900425E0FF9004B4
:1031A00032E4F0A3EFF0D0030223367FFF22122394
:1031B0003690042022122336900420220B90042FF4
:1031C000EBF0A37412F07442A3F090040FE0FEA39E
:1031D000E09012FE75F007120B5FEE75F007A42564
:1031E00083F583E493FE740193AA06F9EB9004320D
:1031F000F0A3EAF0A3E9220B90042FEBF0A37411E3
:10320000F074DCA3F0900418E09012FEFF3395E018
:10321000FE75F007EF22900424E0FCA3E0FDA3E09C
:10322000FEA3E0FF22FF7DBA12A2D9900414E0F9B8
:103230007A007BFE2290041BE0FF3395E0FE9013A2
:103240000075F007EF120B5FEE75F007A42583F50C
:1032500083E493227D0A7C00AF82AE831206EC7C6D
:10326000007D0A1206ECED2430FFAE020AEB2EF8C8
:10327000EFF222FC900420120B16E47FFF7EFFFD8C
:10328000FC900420E0F8A3E0F9A3E0FAA3E0FB221D
:103290000B90042FEBF0A322F0900411E0FBA3E0CD
:1032A000FAA3E0F922900414E0FFA3E0FD90041ECD
:1032B00022900421E0900420FFE0FEEFC36480F838
:1032C000EE6480982290041AE0FFF8900420E0FE5B
:1032D00004F0E82EF87420F2A807E0FF04F0E82FCD
:1032E000F8227C037DE8AF82AE831206EC7C007D81
:1032F0000A1206ECAE04AF05EF4E2290041DE090DA
:103300000427FFE0FD3395E0FCC3ED9F7480F86C6B
:1033100098229012D0FF3395E0FE75F003EF120B68
:103320005FEE75F00322F01BA3EBF0A37400F0A393
:1033300074BA22900423E0FFE4FCFDFEEB2FFFEEC5
:103340003AFEED39FDEC38FCA3020B16900421F097
:1033500090041DE0A3F0E4900420F022EF2430FD5F
:10336000AC020AEB2CF8EDF222E0F8E2FC08E2FDF8
:1033700008E2FE08E2FF22AB058F828E83E4FA7C2E
:10338000277D101206ECEF4E22900411A3A3E0FF5C
:10339000A3E0FD22F2900422E004F02290041AE05F
:1033A000FDF8900420E0FC04F0E82CF822E0F8900E
:1033B0000420E0FE04F0E82EF822900424E0FEA3AE
:1033C000E0FF7C007D0A0206DA900424120B1690BE
:1033D000042422540FFCC3940AEC22FBAA060EED2F
:1033E0002AF8EBF222E0FFA3E0C39FA2E713FEEF6F
:1033F0002EF9ED227411F0A374F4F090041BE00494
:10340000F8E222E0FCA3E0FDA3E0FEA3E0543FFFCE
:1034100022900419E0F8E2900422F022EB2FFFEA58
:103420003EFEE93DFDE83CFC22900422E0FF9004D2
:103430001CE02290041FF0900423E075F00AA422FF
:10344000EF2430FD7C000AEC2BF8EDF2221207A3EA
:10345000FF900435E5F0F0A3EF2290041CE02EF875
:10346000E222A3F09012FE75F0072290040FE0FE16
:10347000A3E022F0A3EFF0900427E004F022F29002
:103480000420E004F022A3A3A3E0FF7808020A715D
:10349000E493F9740193FA74029322F583E493FEA2
:1034A000740193FF22900427E0C36480948022F883
:1034B000E290041FF0C3943022AF020AEB2FF8749D
:1034C0002EF222540F90041FF0C3940A22AF060E6E
:1034D000ED2FF8229001EB123FC1F9900412123F38
:1034E000D212060B120C83351500357901358A028C
:1034F00035EE0335FF0436080A36210B36380C3614
:10350000411436751536A21636D617370318370C00
:103510001E00003795123FBE2426F9E43AA8017A2E
:103520000079007F0B123FB41241C3C003C002C038
:1035300001900412124131120C2A1241CAC003C078
:1035400002C001123FBEF9900004120C2A123FBEC5
:10355000F990000774081240D4C003C002C00112E1
:103560003FBE123FC9D001D002D0031237B360036F
:10357000023795123FBE124011123FBE1237A160B2
:1035800003023795123FBE124011123FBE2426F9A6
:10359000E43AA8017A0079267F09123FB41241C3A8
:1035A000C003C002C001900412124131120C2A1251
:1035B00041CAC003C002C001123FBEF9900004120C
:1035C0000C2A123FBEF990000774091240D4C003C0
:1035D000C002C001123FBE123FC9D001D002D003C9
:1035E0001237B36003023795123FBE124011123FEB
:1035F000BE1237A16003023795123FBE124011126E
:103600003FBEF9740A1206A67B017A047915E4FD1F
:103610007F68129A19EF6003023795123FBE12407D
:10362000117B017A047915E4FF12A310EF60030205
:103630003795123FBE124011123FBEF974141206A4
:10364000A6123FBE1240AD7BFE7A00790B7E007F52
:103650001B123FBB240BF9E43AFAE4FF1237BE70A9
:103660000302379890041DE064FD70030237951241
:103670003FBE1240117B017A04791E1291DD900445
:103680001DEFF0E0FFF47003023798EF64FD700364
:1036900002379590041EE07003023798123FBE1265
:1036A0004011123FBE1240AD7BFE7A00792F7E00A2
:1036B0007F08123FBB240BF9E43AFA7F011237BEB0
:1036C000700302379890041DE064FD700302379583
:1036D000123FBE1240117B017A04791E1291DD90D7
:1036E000041DEFF0E0FFF47003023798EF64FD7003
:1036F0000302379590041EE07003023798123FBE14
:10370000124011123FBEF9741E1206A67E007F0BF6
:10371000123FDB78927C017A00790B7F1B12419477
:1037200078AD7C017D01123FF778B67C017D0112F6
:103730003FEA78BE7C017A0079377F131241947892
:10374000D17C017D011240177F4012402478027C19
:10375000017D017B017A027972123FF0780A7C01C7
:103760007D017B017A02797A1241449001EB12418A
:103770008253337F90041E04F0FB7A02794A7F1F44
:103780007E00125E057B017A04791E7F327E001274
:103790005E057F00227F01229001EB1241827FFFB4
:1037A00022F9900008120BFA12981690041DEFF0FF
:1037B0006402221250E090041DEFF0640122128F87
:1037C0009E90041DEFF0F422205B4847204F5645A1
:1037D0005254454D505D00205B4C482053454E539C
:1037E0004F52204F50454E5D00205B4C48204F56B5
:1037F000455254454D505D00205B4C482057415484
:103800004348444F475D00205B505320434F4D5D7C
:1038100000205B4C4820434F4D5D00205B505320FF
:103820005741544348444F475D00205B50554D502D
:103830002046414E535D00205B434F4F4C414E5458
:1038400020464C4F575D00205B434F4F4C414E5438
:10385000204F56455254454D505D00205B434F4F1D
:103860004C414E54204C4556454C5D00205B43482E
:103870004152474552204F56455254454D505D00E8
:10388000205B43555252454E5420445249564552AE
:103890002054454D505D00205B425249444745202D
:1038A0004F56455254454D505D00205B4C482049D1
:1038B0004E434F4D5041544942494C4954595D0083
:1038C000205B4C4820454550524F4D20434F5252AB
:1038D00055505445445D00205B434F5645522049A6
:1038E0004E5445524C4F434B5D00205B4C48205496
:1038F000454D505D00205B53494D4D4552315D00B3
:10390000205B53494D4D4552325D00205B434F4F84
:103910004C494E472047524F55502054454D505D1D
:1039200000205B4348415247455F4552524F525D2C
:1039300000205B52454D4F544520494E5445524C52
:103940004F434B5D00205B4C4820434F4E4E454358
:1039500054494F4E5D00205B4C414D50205452491C
:1039600047204558545D00205B434F4D205741543C
:103970004348444F475D00205B505320454550521B
:103980004F4D20434F525255505445445D00205BEB
:10399000434C52414C41524D204E45454445445DB7
:1039A00000205B5348555454455220434C4F5345D7
:1039B000445D00205B4C48205357415020444554FF
:1039C00045435445445D004641554C54203D00411B
:1039D0004C41524D203D005741524E494E47203DEB
:1039E00000204E6F6E65000A00FF37C808E0FF3701
:1039F000D70708FF37E90910FF37F80980FF3807B4
:103A00000940FF38110508FF381B0580FF382A04DC
:103A100001FF38370304FF38470320FF385B0308F2
:103A2000FF386C0340FF38800310FF38970380FF96
:103A300038AA0240FF38C00906FF38D70802FF380D
:103A4000EA0710FF38F50440FF39000420FF390B66
:103A50000402FF39210480FF39310302FF39450395
:103A600001FF39560220FF39670201FF39770280D2
:103A70000FFF39E9FF39C70CFF3A34FF39CF030193
:103A800004F2FF39D70390041CEDF0A3EBF090048F
:103A90001BEFF0120C833D041D3AF7243AB82C3D7D
:103AA00004323AF73E3D044F3AF7513BCE523B8742
:103AB000683BCE6900003D2190041DE0F990042888
:103AC00074FEF0A3E4F0A3E9F0E4A3F0901434E46E
:103AD00093FF90042BE06F601DE0FE12345AFD90BE
:103AE000042812329C8E82758300ED1206B8900471
:103AF0002BE004F080D62290041BE09013001232D9
:103B00000C123245900421F0E4A312334F900421AB
:103B1000E0FE900420E0FDC3EE6480F8ED64809840
:103B20005055123429FC2F1234AF400CE0D3943995
:103B30005006E024D0F080037FFF2290041FE0C4F1
:103B400054F0FF90041EE0FB2DF8EF123394E02CAC
:103B50001234AF400CE0D394395006E024D0F0800A
:103B6000037FFF2290041FE0FFA3E02BF8E22F1257
:103B7000339412347F80961234292FF8E2AF067006
:103B800003023D397FFF2290041DE0A3F0F8E4F228
:103B900090041CE0F8E2FFB4450B90041EE0F8E24C
:103BA0004401F28008EF644960037FFF2290041C07
:103BB000E004F8E2FFB4450B90041EE0F8E2440292
:103BC000F28008EF644960037FFF227F01229004A6
:103BD0001DE0A3F0E4900421F090042112342C2F76
:103BE000F8E2FF90041FF0900421E004F0EFC3948A
:103BF00030400990041FE0D3943940DD900421E067
:103C000014F090041FE0700C900421E0FED3648057
:103C1000948C40037FFF22E4900423F0D3EE648071
:103C20009489403A900421E024F7900420F0E49035
:103C30000422F0900420E09004221232B8502412A2
:103C4000345A24D0123433FF90041FE0FE2F900426
:103C500023F0C39E50037FFF2212339580D5E4905A
:103C60000422F0900423E0FF90041EE02404F8EF07
:103C7000F2900424120B2E00000000900421E0FDBD
:103C8000A3E0FEED1232BC506D90041CE0F92EF85A
:103C9000E224D0900423F0123395E0FFC3ED64805A
:103CA000F8EF6480985027E92FF8E224D0FF12340F
:103CB000332FF0A3123219E47B64FAF9F812090CDD
:103CC0001233C912328412333312339580AD12325B
:103CD000167801120A851233C9123284C0001232DA
:103CE000167802120A85D00012341C1233C912321F
:103CF00084123333808512321690041EE0F8120BC2
:103D0000227F05221232350412334C1232B1501088
:103D100012345AFD90041EE02EF8ED12347E80EB32
:103D20002212323512334C1232B1500C90041EE084
:103D30002EF8E412347E80EF2222787BE2FF339566
:103D4000E0FE90040FF0A3EFF0A374FEF0A3740064
:103D5000F0A3747DF0A37492F0EE7040EF249460B1
:103D60002314602914602C1460112404702E900414
:103D700014E0F8740AF27E007F0122123389128562
:103D8000FA023F6D1233891264DD023F6D123FA2C9
:103D9000023F6D12338912AD9E023F6D12346BFFEC
:103DA000C3EE648094805003023F9DEF946AEE64FA
:103DB0008094804003023F9D12346BFF9012FD758A
:103DC000F007123245B40C004003023F9D903DD4F1
:103DD000F8282873023DF8023EBE023ED8023E0F8C
:103DE000023E37023EF7023F50023F31023F1402CB
:103DF0003F6A023DF8023F7312322BC003C002C07B
:103E0000011232907412F0741C123462EF80191295
:103E1000322BC003C002C0011232907412F0A3749E
:103E200026F012346B1234641231D7123298120613
:103E30000B900435023F6712329912060B9004155D
:103E4000F0C3648094807F0050027F01900416EFDD
:103E5000F09004156006E0F404FF8002E0FF900497
:103E600017EFF0E0FF75F00A1205E9900415F0EF86
:103E700075F00A1205E9AFF0900417EFF012322B3B
:103E8000C003C002C0011232907412F074301231BB
:103E9000C8F0900416E060067A12794080067BFF35
:103EA0007A0E79F2900435EB1231F0F0900415E0BF
:103EB000900438F0900417E0900439023F67123202
:103EC0009912060B7E00123225C003C002C00112F7
:103ED00031BC123326023F6712329912060BFF7E65
:103EE000007DBA12A75412322BC003C002C00112C7
:103EF00031BC123326807012322BC003C002C001C5
:103F00001232907412F0A3744B1231C9123298120B
:103F1000344D805312322BC003C002C001123290C4
:103F20007412F0A374541231C912329812344D80B5
:103F3000361232991207A3FFAEF07DBA12A75412BF
:103F4000322BC003C002C0011231BC1233268017CD
:103F50001232991207A3AEF0123225C003C002C07C
:103F6000011231BC123326F0802A123FA2EF3395A2
:103F7000E0FE2212322BC003C002C0011232907444
:103F800012F0A3745D1231C9123298120A9890048B
:103F900035120B16D001D002D0030223367EFF7FEC
:103FA000FF2290040FA3E0FFA3A3A3E0FDA3E0FB87
:103FB000122E6122FCAD037BFE7E00120DCE90041A
:103FC00012E0FBA3E0FAA3E0222408F9E49004291C
:103FD0003AFAEBF0A3EAF0A3E9F02278877C017DBE
:103FE000017BFE7A007900020DCE7BFE7A00792FEC
:103FF0007E007F08020DCE7BFE7A0079267E007F50
:1040000009020DCE7D017B017A0379ED7E00020D60
:10401000CEF974010206517A00794A7F017BFE7E57
:1040200000020DCE78C27C007D017B017A027932DC
:104030007E00020DCEE090CF01547F75F003120B8D
:104040005FE475F003A42583227D017B017A037967
:10405000FF7E00020DCEF0900431E0FEA3E0F58279
:104060008E8374019390043AF090042DE0F9A3E05C
:10407000FAA3E0227DFE7E00120DCE7B017A037949
:10408000FF22EF3395E09003EBF0A3EFF09003EB0A
:10409000E022F91207A3FFAEF0C322AF829004160C
:1040A000FEF0A3EFF0F5828E83E493FF22240BF958
:1040B000E43AA801FCAD0322E0FEA3E0FFC394357F
:1040C000EE648094802278327C027D017E00020DB5
:1040D000CE9000071206B8E92401F9E43AFA2290DA
:1040E00003FEEFF0E0FF64FD22E090042BFFA3E06D
:1040F0005407FE7401A8060822F98D82758300EF2B
:104100000206B8F98D827583000206247C007D08C2
:1041100012074174722FF58274013EF583229004D8
:1041200016E0FEA3E0F5828E83740193FC229004D6
:104130000EA3E0FAA3E0F990000122C394B8EE6464
:10414000809480227E007F0B020DCE90CE60EF75B2
:10415000F003020B5F900420E0FEA3E0FF90042434
:10416000E0FCA3E0FDC39FEC9E227DFE7B017A0371
:1041700079ED22D390041BE09F90041AE09E2290D8
:1041800002A6E4F0A3F0A3F02290041DE09F9004A7
:104190001CE09E227D017BFE7E00020DCE2479F57F
:1041A0008274013EF58322F912060B900423F0225B
:1041B00078007C007DFE020DCE900424E0FEA3E09A
:1041C000FFC3222426F9E43AFA227B007A00790020
:1041D000229003FEEFF0E02274792FF582E434019F
:1041E000F5832274722FF582E43401F58322900462
:1041F0003AE0FF900430E022F912060BFFC3227868
:104200002F7C007DFE229002A6A3E0FAA3E04A7074
:1042100002FF229002A6123FC1F990040E123FD273
:1042200012060B120C83424B0042B60142CD0243F0
:104230003E0343550443610A43910B43B80C43E2E8
:104240000D44090E4415140000441A90040E123F48
:10425000C124261240AF123FF790040E123FC11244
:1042600041C3C003C002C00112412E120C2A1241E8
:10427000CAC003C002C00190040E123FC1F99000F1
:1042800004120C2A90040E123FC1F9740A1240D194
:10429000C003C002C00190040E123FC1123FC9D03A
:1042A00001D002D003124445600302441A90040E68
:1042B000123FC112401190040E123FC112442360FC
:1042C0000302441A90040E123FC112401190040ED2
:1042D000123FC124261240AF7A0079377F13124073
:1042E0001D90040E123FC11241C3C003C002C001A1
:1042F00012412E120C2A1241CAC003C002C0019002
:10430000040E123FC1F9900004120C2A90040E1200
:104310003FC1F9740B1240D1C003C002C001900428
:104320000E123FC1123FC9D001D002D00312444542
:10433000600302441A90040E123FC112401190040F
:104340000E123FC1124423600302441A90040E125D
:104350003FC112401190040E123FC1F9740A1206B7
:10436000A690040E123FC11240AD123FEA90040E17
:10437000123FC17F02124435700302441D900411A4
:10438000E064FD700302441A90040E123FC1124013
:10439000117B017A0479121291DD900411EFF0E0A3
:1043A000FFF46079EF64FD6071900412E0606E903C
:1043B000040E123FC112401190040E123FC1124070
:1043C000AD12401790040E123FC17F0312443560B6
:1043D0004C900411E064FD604190040E123FC11244
:1043E00040117B017A0479121291DD900411EFF0F3
:1043F000E0FFF46028EF64FD6020900412E0601D8F
:1044000090040E123FC112401190040E123FC1F9E8
:1044100074141206A612417FFF227F012212417FEF
:104420007FFF22F9900008120BFA129816900411DF
:10443000EFF0640222240BF9E43AFA128F9E900402
:1044400011EFF0F4221250E0900411EFF064012219
:1044500090041BEFF0A3EDF0A3EBF0900420120BFF
:104460002E00000000E4900424F0A3F0A3F0A37455
:10447000FFF0A3F0E490042FF090041EE01425E078
:10448000FFA3E0FB2F90042EF0FA25E024E3F58251
:10449000E4341512349BEE3395E0FDFC90043012A9
:1044A0000B16EA25E024EBF582E4341512349BE484
:1044B000FCFD900434120B16E4900426F090041BCB
:1044C000E0F8E2B42D1090042F7401F0900426F06F
:1044D000EB70037FFF22900426E0FFC36480948A80
:1044E000400302459D90041BE02FF8E2900429F060
:1044F0007007900428F002459D900429E0FFC364F2
:104500008094B04070D3EF648094B950681234A5A1
:10451000503BE47F0AFE12327F12090CA804A90561
:10452000AA06AB07900429E0FF3395E0FEFDFC12DC
:10453000341CEF24D0FFEE34FFFEED34FFFDEC34ED
:10454000FF123273D3120A4D404A7FFF221233BA50
:10455000900429E0FD3395E0FCED24D0FDEC34FF20
:10456000CD2FFFED3E9004241234731232FB402411
:10457000E4A3F08028900429E0FF642E6004EFB4E7
:104580002C1B1234A5501690041DE09400400EE43C
:10459000900427F0900426E004F00244D69004280A
:1045A000E0705F1232FB500C1233BA900424EE120A
:1045B000347380EFE4900426F090041DE09004260C
:1045C000123302501D900420123219E47B0AFAF9CA
:1045D000F812090C900420120B16900426E004F047
:1045E00080D712328112321EE4FCFDEB2FFFEA3E2F
:1045F000FEED39FDEC38123273D3120A4D40037FC1
:10460000FF2290042FE09004206008123219120A51
:1046100029800312321990042A120B1690043012CA
:10462000321990042A123284C3120A374058900477
:104630003412321990042AE0F8A3A3A3E0D3120A9B
:10464000374002804190041EE0900428F090042E30
:10465000E014600C14601A146017240370288000A2
:1046600090042AA3A3A3E0FF90041CE0F8EFF280DB
:104670001B90042AA3A3E0F8A3E0FF90041CE0C869
:10468000F208EFF2800690042874FFF0900428E00E
:10469000FF227A0479157F0A12489F900415E0C31F
:1046A00030E101D3920290040E7404F07A04790E82
:1046B000126E16125E05D2A1C284300204C2A3801B
:1046C00002D2A3C2A27F01129B7B7F2812486E7F79
:1046D000281248A76004D2A18002C2A112AC417F77
:1046E0000312AB6612AE417A0379CA7F1612489F55
:1046F0007F167E00128D9C7A0479147F181248B1BF
:104700007F0112ADDCE490041EF0E0FF9003CAE0EC
:104710007E0030E0027E01EF4E90041EF0E0FF903C
:104720000414E07E0060027E02EF4E90041EF07FD3
:104730001A12488690041BE0FCA3E0FDE412036C0F
:10474000E4FBFA79207841120251900416120B16FC
:10475000126D7C90041EE0900426126DB1126072FE
:1047600090041AEF126DB1127B1B126DB212A10CE4
:1047700090041DEFF07A0479127F121248B1900470
:1047800012126DC67404F0A37411F07B017A0479DF
:10479000101284DF9003CAE090041030E109E0FFBA
:1047A000A3E0FD7B018007E0FFA3E0FDE4FB128BAB
:1047B000777F0212486E7F021248927F01127C7846
:1047C0007F0312487A7F031248927F02127C787F1F
:1047D0000412487A7F041248A7FD7C007F03127CF4
:1047E000787B017A04790F7F057E001270977F0530
:1047F0007E00128D9C90040FE0FD7C007F04127CF3
:10480000789003DF126D7F900416120B169003CA86
:10481000E07F0030E0027F0190041AEFF0E4A3F0A3
:10482000EF60057F0D124886126D7C90041BE090AE
:104830000426F07B017A03795E1273CF126DD3E404
:10484000900424F07D50FC12AAE7126DDA90042443
:104850007401F07D507C0012AAE79003CAE0540175
:10486000FF900414E0FD1296E67F0102AD697B0122
:104870007A04790F7E00127097227B017A04790FF7
:104880007E00127097227B017A04791B7E001270E1
:1048900097227E00128D9C90040FE0FD7C00227B0D
:1048A000017E00127097227E00128D9C90040FE012
:1048B000227B017E00127097229004131295B6128B
:1048C00095CDC003C002C0011295AA900003120C3E
:1048D0002A9004167401F01295AA90000112062481
:1048E00014605314605024FE7003024A791470035C
:1048F000024AA024056003024AC11295AA12060BBF
:1049000075F007A42474F582E4343AF583E493FB4C
:10491000740193FA740293F9C003C002C0011295A6
:10492000AA900003120C2A1295AA74011295EA901B
:104930000002E4024A961295AA12060BFF75F007D0
:10494000A42471F582E4343AF583E493F974019375
:10495000FA740293900417C91295B7EF75F007A483
:104960002470F582E4343AF583E49390041AF0124B
:1049700095CDC003C002C0011295AA900003120C8D
:104980002A1295AA1295F0FF900417E0FBA3E0FA13
:10499000A3E02FF9EA35F0FA900004120624FF9004
:1049A000041BF0900003120624FE90041CF09004F7
:1049B00013E0FBA3E0FAA3E02406F9E43AFAEE12CE
:1049C00095E212060B5FC36001D3920230022F9072
:1049D00004171295ADC003C002C0011295AA12952A
:1049E000F0F58285F083D001D002D003120BFAC01B
:1049F00003C002C0011295AA900003120C2A12955E
:104A0000AA9000027401120673900002120624FF9D
:104A100090041AE0B50703D38001C3920320030674
:104A20002002030249813002081295AA74021295ED
:104A3000EA30032C1295AA900001120624B4011545
:104A40007BFF7A3979E1C003C002C0011295AA90B8
:104A50000003120C2A1295AA90000174041206B8E1
:104A60001295AA900003120BFAEA494B7F026002EA
:104A70007F00900416EFF080487BFF7A3979E7C019
:104A800003C002C0011295AA900003120C2A1295CD
:104A9000AA90000174051206B8E4900416F0802173
:104AA0001295AA740112065112060BFF903A85E482
:104AB000936F600D900001E41206B8900416740222
:104AC000F0900416E0FF640270030248BF22C0E0C9
:104AD000C0F0C083C08263A201C083C082C0D07511
:104AE000D01830D95DC2D9200F0B78B406E6187003
:104AF0000106024CCFC215C20D125DCB78BFF690F5
:104B00000517F0900462E5EBF0E5FB125D46FF123D
:104B10005D8BF5EC900461E0F5FCC20F788F7600B8
:104B2000D212A3E5EBF0900461E5FBF0EF125D1902
:104B3000A3125D25F5EE900461E0F5FE75DC4D7580
:104B4000DE4930DA50C2DA30123E1016028002C25C
:104B500092900462125DED900517E0FF2404125D4F
:104B60008B125DD575DD4DA2149213A3125DEDEF8E
:104B70002402125D1BA3125D25F5EC900461E0F5A3
:104B8000FC75DC4DC212800DD29275DC0078B00647
:104B9000E61870010630DB4DC2DB75DD0000000059
:104BA00000D2961013028013125D3E2406125D1B84
:104BB000125D22125DD575DD4D802A100C15D20CC8
:104BC000125D3E2408125D1B125D22125DD575DD5B
:104BD000498012128F3B20B50878B206E6187001A2
:104BE00006D215D20D20DC03024CCF788FE690045C
:104BF00061F0C2DC200E70E0FF703FC215125DCB89
:104C000078C0F6900517F0D212125D31900517E0CA
:104C1000FE125DF7900463E02DF0900462E03CF03A
:104C2000A3E0F5EC900462E0F5FC75DC4DA3125DA9
:104C300034EE240D125DF7A38043EFB40102804BE4
:104C4000900517E0FF240AF8900461E06670107880
:104C50008F76FF125D31EF240B125D1BA3803212A1
:104C60005D09900463802A900461E0FF7019125D71
:104C700031900517E0240B125DF7900463E02DF0EE
:104C8000900462E03C803AEFB40110125D09900498
:104C900063E02FF0900462E03E8026900517E02448
:104CA0000AF8900461E066700A788F76FFD20FF5FB
:104CB000DE8019125D09900463E02FF0900462E039
:104CC0003EF0A3E0F5EE900462E0F5FE788F06D0AA
:104CD000D0D082D08363A201D082D083D0F0D0E044
:104CE0003212A7C8E4A3F07F34FE124ED7C285C2A9
:104CF00084E49003EBF0A3F09003ED120B2E000080
:104D000000007FA07E0F12A7AC5005124E9180F2DA
:104D10009003ECE004F070069003EBE004F0C39025
:104D200003ECE0940A9003EBE0940040CBD2849033
:104D300003ED120B2E0000000012A7A85005124E22
:104D40009180F6E49003EBF0A3F012A7C1E4FDFF1D
:104D5000129A19EF70459003ED120B2E000000001F
:104D600012A7A85005124EB480F612A7C1E4FF1294
:104D7000A310EF70069003F9F0802012AD3A900373
:104D8000ECE004F070069003EBE004F0C39003EC59
:104D9000E094149003EBE0940040AF9003ED120B0D
:104DA0002E0000000012A7A85005124EB480F61283
:104DB000AD3A9003F9E07016125A0B9003FCEFF035
:104DC000046008047008433340800312A7C89003AE
:104DD000F9E06003024E60A37480F09003F9E07084
:104DE0007F12AD4612A7C8A3E0FF12964A9003FBBC
:104DF000EFF0C36480948040679003ED120B2E00A7
:104E00000000009003FBE0FF12A7C1129D10EF709D
:104E1000119003F9F0A3E0FF7E0012A7C1125E0516
:104E2000801F9003EDE0FCA3E0FDA3E0FEA3E024DF
:104E300001FFE43EFEE43DFDE43CFC9003ED120B7B
:104E4000169003F9E0600AE47FE87E0312A7AD4004
:104E5000B29003FAE004F0E0C394B85003024DDBD3
:104E60009003F9E0600E129EDA12AD4612AB4E12BC
:104E7000AD46800612ABE412AB1C9003FA74FFF04F
:104E80007F337E00124ED77F337E00128D9C7F4091
:104E90002212AD469003EDE0FCA3E0FDA3E0FEA3EB
:104EA000E02401FFE43EFEE43DFDE43CFC9003ED24
:104EB000120B162212AD469003EDE0FCA3E0FDA319
:104EC000E0FEA3E02401FFE43EFEE43DFDE43CFC03
:104ED0009003ED120B16227B017A0379FA125E051C
:104EE00022900414ECF0A3EDF0900412EEF0A3EF86
:104EF000F09004DBE06E7003A3E06F6021E49004A7
:104F0000D2F0900412E0FFA3E0CF12909E120B2E7D
:104F1000000000009004D3120B2E0000000090044B
:104F2000D2E075F00584AFF0900428EFF09004D241
:104F3000E004F0EF7003024FE8900428E0640160A1
:104F400003024FE37B017A0479297F08FE127097F0
:104F50009004CA12906812907A74FC1202F06016E3
:104F60009004291290689004CA120B169004D7126C
:104F70000B2E000000001290A91270971290B4122C
:104F80007097E4FFFEFDFC9004CA12907D74FC1241
:104F900002F0604F9004CA1290689004D712907D7E
:104FA000120148900429120B167CC512907474FCEF
:104FB0001202F050109004CA129068120026A80441
:104FC0007CC51290897C4512907474FC1202F060CA
:104FD0001240109004CA129068120026A8047C4562
:104FE0001290897EFF7FFF22900412E0FEA3E0FB77
:104FF000AA0612906DC3EF9BFFEE9AFEE49400FDAB
:10500000E49400FC12036790041E1290629004D78F
:1050100012907D120057900416120B169004D312B2
:10502000907D12906512005312905F9004D3120B82
:1050300016900416129068129098900416129068B8
:105040009004CA12907D120148900416129062904A
:1050500004CE12907D12014890041E120B1690048B
:105060001A1290689004C612907D12014812905F47
:1050700090041612907D12005790041A12907D121F
:105080000057900422120B16E4FFFEFDFC90042250
:1050900012907D74FC1202F05009E4900426F0A3F3
:1050A000F080347F007EF07D7F7C4590042212905A
:1050B0007D74FC1202F0600E400C900426740FF018
:1050C000A374FFF080119004221290681203A5903F
:1050D0000426EEF0A3EFF0900426E0FEA3E0FF220A
:1050E000900426126CA312A01690042C126CA3C07C
:1050F00003C002C001900429126C76120BAB126C33
:1051000073EA494B70037FFE22900426126C76C02E
:1051100003C002C001126C73900013120C2A900499
:1051200026126C76126D0A12ACC7126C73EE8FF0F9
:105130001208C090042C126D252402F9E43AFAC03A
:1051400003C002C00190042C126C78900004120C71
:105150002A126C73126D12120B8BC003C002C001B5
:10516000126C73900009120C2A126C73126CD2C06C
:1051700003C002C001126C7390000E120C2A126C54
:1051800073126C7FEA494B601A126C73126C89C0FF
:1051900003C002C001126CBDD001D002D003126D59
:1051A00048804A900426126C76126D0A12AE0AC02C
:1051B00003C002C001126CBDD001D002D003126D39
:1051C00048126C73900016740112067390001774E5
:1051D00001120673FF1207A3F58285F08374029310
:1051E000FEEF8EF084900017E5F01206B8126C7393
:1051F0009000161206249000021206B812998790A9
:10520000042FEEF0A3EFF0126C73900004120BFA6F
:10521000C003C002C001126C73126CF2EFF0D00137
:10522000D002D003E4FF12A97D126C73900003EF4B
:105230001206B8900003120624FF900009120BFA20
:10524000C003C002C001126C7390000C120803FD71
:10525000126CF9EDF0D001D002D00312A97D126CCE
:1052600073900003EF1206B890042FE0FEA3E0FF56
:10527000E92404F9E43AFAC003C002C00190042C06
:10528000E0FB126C95D001D002D0037D03128AFF9F
:105290007F012290044A125DC2AB07AA06A905A8A5
:1052A000047F007E247D747C491202517B8E7AE358
:1052B000790A783E12025190044D120B16E4FBFA63
:1052C00079807847125CE9120251125DA0125CEC01
:1052D000E4FBFA79407840120057125DA0125CECB2
:1052E0001203A5E4120367125DA0125CFDE4FFFE49
:1052F000FD7C45120251C004C005C006C0079004E1
:1053000051125CFD125CE9120251D003D002D001AF
:10531000D0001200531203A5900459125DE6125CEE
:10532000E0900003125D6AE4FCFDC004C005C00605
:10533000C007125CE91203A5D003D002D001D0004F
:10534000120997900455125DE6125CE0EF1206A672
:1053500090044A125CE0125D70E4FCFDC004C005DC
:10536000C006C007125CE91203A5D003D002D00129
:10537000D000120997AC00AD01AE02AF0390045DFE
:10538000125DE6125CE0900001125D6A9004591211
:105390005CFDE8494A4B7D0070027D01EDB50707D1
:1053A000E4B506037FFF2290044A125CE0900001FE
:1053B000125D7390045D125CFDE8494A4B7D0070FC
:1053C000027D01EDB50707E4B506037FFF229004D7
:1053D0004A125CE012060BFE900455125CFDE8498F
:1053E0004A4B7F0070027F01EFB506037FFF22EE7C
:1053F0007F0070027F01EFC3940340037FFF229080
:10540000044A125CE090000312080345F07F00702C
:10541000027F01C3EF94D07480948740037FFF2202
:1054200090000112080345F07F0070027F01C3EF76
:1054300094D0748094877F0040027FFF227B017AA2
:1054400004790E7F247E0012709712A9327E00121A
:10545000709790040EE06005E53220E11C533CEFAC
:1054600012A91FE490040FF012A932FE125E051279
:1054700055B112A929F00255ABE53C20E460900437
:105480000EE0FF6059E53B30E507A37401F00255DB
:1054900031E53B30E60990040F7402F0025531E526
:1054A0003B30E70990040F7403F0025531EFB4016B
:1054B00007E53B30E2028014EFB40207E53B30E33E
:1054C000028009EFB4030DE53B30E40890040F744B
:1054D0000AF0805D90040FE0705704F08053E53CC3
:1054E00030E44E90040F740AF090040EE0B4011101
:1054F000E53B20E20CE4A3F05332EF900528F08066
:105500003090040EE0FFB40213E53B20E30EE4A369
:10551000F05332EF5332F79005288012EFB40311A5
:10552000E53B20E40CE412A91B900528F0A3F0A3AE
:10553000F0900528E0600BE53B20E50620E2031231
:10554000A919900529E0600BE53B20E60620E3035E
:1055500012A91990052AE0600BE53B20E70620E43C
:105560000312A919E53B30E50D9005287401F0E41C
:10557000A3F0A3F0801CE53B30E60DE4900528F095
:10558000A304F0E4A3F0800AE53B30E70512A92963
:1055900004F012A9327E00125E0590040FE060084C
:1055A00090040E7401F080031255B190040EE0FFD8
:1055B00022E490040EF07B017A04790E7F24FE121F
:1055C0005E05227B017A04790F12A549EF60030280
:1055D000572FD21B90040FE0FF640A6008EF640DA0
:1055E00060030256ED7492253DF8E4F27F92900438
:1055F00012EFF0A3F0E53D60CAE4FF74922FF8E2E9
:1056000060030F80F6E53DFDEFFB3395E0FAC3EB59
:105610009D7480F86A98500A74922FF8E270030F14
:1056200080E3E53DB50703E4800374922F900413F3
:10563000F0D21C7862E4F2087480F2E408F208F216
:1056400090041074FFF0900412E0FF128CC69004D6
:1056500010EFF0C3648094804005E4A3F0800D90C7
:105660000412E0FF128E05900411EFF0900410E098
:10567000FFB4FF0DA3E070097862F2087480F28035
:1056800039900411E07864F2EFF46019900410E0AE
:105690009012D212331512324CFE3395E07862F23A
:1056A00008CEF28015900413E060097862E4F208F5
:1056B00004F28006E47862F208F2900411E0FF60E0
:1056C00022900413E0FD601B7B66125F44C3EF640D
:1056D000809480500A7862E4F2087481F280047841
:1056E00065EFF2753E01E4F53DC21CFF2290040F08
:1056F000E0FFB42020E53D70030255C3FE053D7474
:10570000922EF8E4F2E53DD3942850030255C3E409
:10571000F53D0255C312AC96AE3D053D74922EF890
:10572000EFF2E53DD3942850030255C3E4F53DC2A2
:105730001C7FFF229003EB7460F0A37401F0A3F0D0
:10574000129B35E49003F1F09003EDE070030258F2
:105750009812AD46E54B70FC9003F1E004F0E0B424
:105760000304E4F0B2857B007A007931E4FD12A5F0
:10577000DC7F0112A1487B017A0379F07F2F7E0044
:10578000127097E4FF1263CB12ACF6E53630E208F4
:105790009003ED7404F0D2A49003EDE0FFC39404F1
:1057A0005062E53420E305E53530E0079003ED7401
:1057B000018045EFB40117E49003EEF0A3F09003ED
:1057C000ED7402F09003F0E06045C2A48041E5343E
:1057D00030E22A9003F0E060249003EFE004F070E0
:1057E000069003EEE004F09003EEE0B40121A3E0A4
:1057F000B42C1C9003ED7404F0D2A48012E4900346
:10580000EDF0800B9003F0E070059003ED04F0E400
:10581000F5314331017B017A0379F47F16FE127072
:10582000979003F4E0FF30E003433140EF30E103B1
:10583000433120E54BC3940240F97B007A0079376D
:10584000129F1AEF6005129EDA80031267E8E54B9B
:10585000C3940D500B9003EDE0600512A3B280EEEF
:105860001293A87F217E0012911FEF600912ACD71E
:10587000EF600312AA957B007A007931E4FD12A64D
:105880006C12AACC7B017A0379F21258A112A95C9E
:10589000E4FF12749702574812A9FE9003EBE0FF51
:1058A0002290040EEBF0A3EAF0A3E9F07FA212939A
:1058B0004F12A293900411E0540FF0A3E0F012A253
:1058C0006B12AB3512A29330235E9004EE120B2EB6
:1058D00000000000E4900415F0900415E0FFC3649C
:1058E000809488502B900411E0FCA3E0FDEF3395E9
:1058F000E0FEEF25E0FFEE33FE74DE2FF582740448
:105900003EF583ECF0A3EDF0900415E004F080C9BF
:1059100012A26BE4FCFD12A29C12A2747803120A7C
:105920008512A29CC223806412A26BE4FCFD900449
:10593000EEE0F8A3E0F9A3E0FAA3E02FFFEA3EFED1
:10594000ED39FDEC38FCC006C00712A283E0FEA3CF
:10595000E0FBAA06D007D006C3EF9BFFEE9AFEED50
:105960009400FDEC9400FC12A29C12A26B12A28384
:10597000EEF0A3EFF09004DDE004F0E0B40802E400
:10598000F012A2747803120A5E12A29390040EE041
:10599000FBA3E0FAA3E0F9EA494B600E12A27C9067
:1059A000040EA3A3EE8FF01208C07B017A047913D2
:1059B0007F117E00127097900413E0FEA3E0FF2495
:1059C000F4FDEE3401FC900411E0FAA3E0FBD39D5A
:1059D000EA9C40089004157401F0801CEF2438FF05
:1059E000EE34FFFEC3EB9FEA9E500890041574FF4F
:1059F000F08005E4900415F07B017A0479117F268C
:105A00007E00125E05900415E0FF2212A9BE9003ED
:105A1000FEEFF060037FFF2212AD4612407B12A51D
:105A2000171240DF60F2EF60037FFF229003FFE078
:105A3000FF12ADBBEF70037FFE2212A8F69003FEAB
:105A4000EFF060037FFF2212AD4612407B12A4E507
:105A50001240DF60F2EF60037FFF2212407B128969
:105A60000F9003FDEFF012407BE4FF1295FB124113
:105A7000D160037FFF22125B531290BF1240DF60A0
:105A8000F5EF60037FFF2290041AE070037FFD2290
:105A900078927C017F1B124049780B7C007F1B129F
:105AA00040747F031295FB1241D160037FFF2212E5
:105AB0005B531290BF1240DF60F5EF60037FFF225F
:105AC00090041AE070037FFD2278D17C017F0112DF
:105AD0004049784A7C007F011240747F011295FB97
