:020000040000FA
:10000000024125EF75F009A4242EF582E43473AF84
:1000100082FE22024C81C2AAC28A2202507EC00203
:10002000E490029EF0A3F0900295E09002A0F09080
:100030000296122ECCD002121393220223D902046C
:1000400010E86480F8E933E83360110460F0ED33C0
:10005000EC337009E8FCE9FDEAFEEBFF220460DE08
:10006000D3EB9FEA9EE99DE8C2E78CF0C2F795F0DA
:10007000400CE8CCF8E9CDF9EACEFAEBCFFB12035D
:10008000DB85D0F05804700320D5B3E80470075026
:1000900002B2D502041A92D5EC0460F7E4CCC0E0B9
:1000A000C398F8603B94186008400DD0E0FB020351
:1000B000F2E4FBFAC9FC8028E830E406E4C9FBE47A
:1000C000CAFCE830E305E4C9CACBFCE85407601079
:1000D000F8C3E913F9EA13FAEB13FBEC13FCD8F1BC
:1000E00030F52FC3E49CFCEF9BFFEE9AFEED99FDEB
:1000F000D0E0FBEF4E4D4C701222DB03020417ECF4
:100100002CFCEF33FFEE33FEED33FDED30E7EB0279
:1001100003F2EF2BFFEE3AFEED39FDD0E0FB50137A
:100120000BBB000302041AED13FDEE13FEEF13FFE9
:10013000EC13FC0203F2EC4D6011E8497017ED334B
:10014000EC3304600DE4FCFFFEFD22E933E83304E8
:1001500070F80204101203DB58046009E4CC248117
:10016000500628500902041A284003020417C0E070
:10017000EB4A7044B98006D0E0FB020406EF4E70F3
:100180001CBD8008EBFFEAFEE9FD80EBE98DF0A4E1
:10019000FEE5F002021FE9CDF9EAFEEBFFEF89F080
:1001A000A4FCE5F0CE89F0A42EFFE435F0CD89F073
:1001B000A42DFEE435F08067EF4E7005BD80D7803A
:1001C000C3EF8BF0A4ACF0EE8BF0A42CFCE435F084
:1001D000F8EF8AF0A42CE5F038FCE433CB8DF0A4E2
:1001E0002CFCE5F03BF8EE8AF0A42CFCE5F038F8A6
:1001F000E433CF89F0A42CFCE5F038CF3400CE896D
:10020000F0A42FFFE5F03EFEE433C98DF0A42EFEEE
:10021000E5F039CD8AF0A42FFFE5F03EFEE43DFD88
:1002200033D0E0FB50070BBB000F02041AEC2CFC90
:10023000EF33FFEE33FEED33FD0203F202041AEC5E
:100240005D046005E8590470030204101203DB58D2
:100250000460F6EC4860F2EC7004FDFEFF22C8601A
:10026000DB2481C85009C398600250060204179825
:1002700050CAF582E9294B4A7005AB820204067523
:10028000F0007C1A7880C3EF9BEE9AED99400DC385
:10029000EF9BFFEE9AFEED99FDE842F0DC23ACF017
:1002A000D0E0FFD0E0FED0E0FDAB8220E7101BEBFA
:1002B00060BAEC2CFCEF33FFEE33FEED33FD0203AE
:1002C000F2E803F830E705C0F075F000EF2FFFEE1D
:1002D00033FEED33FD40B830E7C280AA74F8CC6439
:1002E00080CCC86480C8F58204604FC3EB9FF5F0F2
:1002F000EA9E42F0E99D42F0E89C45F0603C501DCA
:10030000E5825FFFE582D313CB5BCBF42B5582FBF9
:1003100050280ABA002409B9002008801DE5825B34
:10032000FBE582D313CF5FCFF4C3132F5582FF5069
:10033000090EBE00050DBD00010CC3EB9FF5F0EAF0
:100340009E42F0E99D42F0E89C45F06007CC4820D1
:10035000E701B3EC22ED33EC33600A047003BD8097
:1003600004ECB2E7FC2275F020800E75F0108005D9
:1003700075F0087D007E007F003392D530D50312E2
:100380000780EC334010EF33FFEE33FEED33FDEC2E
:1003900033FCD5F0ED22E5F0247EA2D513CC92E714
:1003A000CDCEFF22EDD2E7CD33EC3392D524814080
:1003B00006E4FFFEFDFC22FCE4CFCECDCC24E050D1
:1003C0001174FF80EDC3CC13CCCD13CDCE13CECFA3
:1003D00013CF0470F030D5DE020780E9D2E7C933CD
:1003E000E833F892D5EDD2E7CD33EC33FC5002B2CE
:1003F000D522EC30E7100FBF000C0EBE00080DBD7B
:1004000000040BEB6014A2D5EB13FCED92E7FD2288
:1004100074FFFCFDFEFF22E480F8A2D574FF13FCFC
:100420007D80E480EFBB010689828A83E02250024E
:10043000E722BBFE02E32289828A83E49322BB0186
:100440000CE58229F582E5833AF583E0225006E93E
:100450002582F8E622BBFE06E92582F8E222E58243
:1004600029F582E5833AF583E49322BB010FF8E591
:100470008229F582E5833AF583E028F0225009C508
:100480008229F8E58226F622BBFE09C58229F8E218
:100490002582F222F8EA2583F583E9932822BB011D
:1004A0000689828A83F0225002F722BBFE01F322E2
:1004B000F8BB010DE58229F582E5833AF583E8F082
:1004C000225006E92582C8F622BBFE05E92582C82E
:1004D000F222EF8DF0A4A8F0CF8CF0A428CE8DF0FE
:1004E000A42EFE22A3F8E0C5F025F0F0E5821582E7
:1004F00070021583E0C838F0E822BB010A89828ABD
:1005000083E0F5F0A3E022500687F009E71922BB4B
:10051000FE07E3F5F009E3192289828A83E493F563
:10052000F074019322BB010789828A830204E4509C
:100530000B09C5F027C7C5F01937C722BBFE0F0945
:10054000F8E3C5F025F0F319E3C838F3E82289820F
:100550008A83740193F5F0E49322BB0110E58229AC
:10056000F582E5833AF583E0F5F0A3E0225009E94E
:100570002582F886F008E622BBFE0AE92582F8E229
:10058000F5F008E222E5832AF583E993F5F0A3E983
:100590009322BB010789828A83020AB7500B09C5DF
:1005A000F027F7C5F01937F722BBFE0D09F8E32550
:1005B000F0F3C5F019E338F322F889828A837401D5
:1005C0009325F0C5F0F8E4933822BB010DC58229CC
:1005D000C582C5833AC583020AB75011C58229F87E
:1005E00008E5F026F618F5F0E58236F622BBFE1196
:1005F000C58229F808E225F0F5F0F218E23582F21A
:1006000022F8E58229F582E5832AF5837401932592
:10061000F0F5F0E4933822BB010A89828A83F0E581
:10062000F0A3F0225006F709A7F01922BBFE06F34B
:10063000E5F009F31922F8BB0111E58229F582E5FD
:10064000833AF583E8F0E5F0A3F0225009E925822A
:10065000C8F608A6F022BBFE09E92582C8F2E5F03B
:1006600008F222E88FF0A4CC8BF0A42CFCE98EF0E9
:10067000A42CFC8AF0EDA42CFCEA8EF0A4CDA8F00A
:100680008BF0A42DCC3825F0FDE98FF0A42CCD35CE
:10069000F0FCEB8EF0A4FEA9F0EB8FF0A4CFC5F038
:1006A0002ECD39FEE43CFCEAA42DCE35F0FDE43C31
:1006B000FC2275F008758200EF2FFFEE33FECD337C
:1006C000CDCC33CCC58233C5829BED9AEC99E582C3
:1006D00098400CF582EE9BFEED9AFDEC99FC0FD54F
:1006E000F0D6E4CEFBE4CDFAE4CCF9A88222B8003F
:1006F000C1B90059BA002DEC8BF084CFCECDFCE50A
:10070000F0CBF97818EF2FFFEE33FEED33FDEC332D
:10071000FCEB33FB10D703994004EB99FB0FD8E5B2
:10072000E4F9FA227818EF2FFFEE33FEED33FDECFB
:1007300033FCC933C910D7059BE99A4007EC9BFCF1
:10074000E99AF90FD8E0E4C9FAE4CCFB2275F0107D
:10075000EF2FFFEE33FEED33FDCC33CCC833C810A2
:10076000D7079BEC9AE899400AED9BFDEC9AFCE8D0
:1007700099F80FD5F0DAE4CDFBE4CCFAE4C8F9221D
:10078000C3E49FFFE49EFEE49DFDE49CFC22EB9FFE
:10079000F5F0EA9E42F0E99D42F0E89C45F022E83F
:1007A000600FECC313FCED13FDEE13FEEF13FFD847
:1007B000F122E8600FEFC333FFEE33FEED33FDECC3
:1007C00033FCD8F122BB010DE58229F582E5833A9D
:1007D000F583020AD95007E92582F8020ACDBBFE4B
:1007E00007E92582F8020AE5E58229F582E5833AE0
:1007F000F583020AF17401FF3395E0FEFDFCA3A32B
:10080000A3E02FFFF0E582158270021583E03EFE23
:10081000F0E582158270021583E03DFDF0E582155A
:100820008270021583E03CFCF022ECF0A3EDF0A313
:10083000EEF0A3EFF022A8828583F0D083D082125D
:10084000084D12084D12084D12084DE473E493A3AD
:10085000C583C5F0C583C8C582C8F0A3C583C5F0EC
:10086000C583C8C582C822A42582F582E5F03583F8
:10087000F58322BB010789828A83020B135005E9A5
:10088000F8020B01BBFE05E9F8020B2589828A8379
:10089000020B37BB011A89828A83D0F0D0E0F8D0EE
:1008A000E0F9D0E0FAD0E0FBE8C0E0C0F0020B1CB9
:1008B0005016E9F8D083D082D0E0F9D0E0FAD0E049
:1008C000FBC082C083020B0ABBFE16E9F8D083D0BE
:1008D00082D0E0F9D0E0FAD0E0FBC082C083020B06
:1008E0002E22BB010DE58229F582E5833AF58302CC
:1008F0000B135007E92582F8020B01BBFE07E9251F
:1009000082F8020B25E58229F582E5833AF5830218
:100910000B37BB0120E58229F582E5833AF583D0C8
:10092000F0D0E0F8D0E0F9D0E0FAD0E0FBE8C0E0A9
:10093000C0F0020B1C5018E92582F8D083D082D079
:10094000E0F9D0E0FAD0E0FBC082C083020B0ABB22
:10095000FE18E92582F8D083D082D0E0F9D0E0FA01
:10096000D0E0FBC082C083020B2E22D083D082F85D
:10097000E4937012740193700DA3A393F874019320
:10098000F5828883E473740293B5F0067403936868
:1009900060E9A3A3A3A380D8EC8EF0A4CCC5F0CCCF
:1009A000CDF8EFA4CEC5F02DFDE43CFCE8A42EC8A4
:1009B000C5F03DFDE43CFCEFA4FFE5F028FEE43D7E
:1009C000FDE43CFC22E709F608DFFA8046E709F27D
:1009D00008DFFA803E88828C83E709F0A3DFFA8083
:1009E00032E309F608DFFA8076E309F208DFFA80DD
:1009F0006E88828C83E309F0A3DFFA806289828AA1
:100A000083E0A3F608DFFA805689828A83E0A3F2A6
:100A100008DFFA804A80D280FA80C680D480658060
:100A2000F28031801080A680EA809A80A880DA80E7
:100A3000E280CA803189828A8363A20188828C83A2
:100A400063A201E493A363A201F0A363A201DFF315
:100A5000DEF1800B89828A83E493A3F608DFF9EC48
:100A6000FAA9F0EDFB2289828A8363A20188828C35
:100A70008363A201E0A363A201F0A363A201DFF4F8
:100A8000DEF280DB89828A83E493A3F208DFF980B7
:100A9000CE88F0EF60010E4E60C588F0ED2402B400
:100AA000040050BBF582EB2402B4040050B12323B0
:100AB000458223900A1573C5F0F8A3E028F0C5F02D
:100AC000F8E582158270021583E038F022E6FC0812
:100AD000E6FD08E6FE08E6FF22E0FCA3E0FDA3E059
:100AE000FEA3E0FF22E2FC08E2FD08E2FE08E2FFCE
:100AF00022E493FC740193FD740293FE740393FF4C
:100B000022E6FB08E6FA08E6F922EBF608EAF60820
:100B1000E9F622E0FBA3E0FAA3E0F922EBF0A3EA76
:100B2000F0A3E9F022E2FB08E2FA08E2F922EBF294
:100B300008EAF208E9F222E493FB740193FA7402E2
:100B400093F922900286EBF0A3EAF0A3E9F0A3EC7C
:100B5000F0A3EDF0900418E020E303020C55E51A31
:100B600020E303020BE7E51130E27C90041BE06414
:100B70000260747F03120F65701690041BE0FD90F5
:100B800002957401F0A3123A5A7F0312001E8015D9
:100B900090028DE0B4011590041B123A89123A5A62
:100BA0007F0312175290028CEFF08003123AAF903D
:100BB000028CE0FF700D431A80531AEF90041B045F
:100BC000F08063EFB4010E531A7F431A1090041B98
:100BD0007402F08051EFF4704D531A7F531AEF9066
:100BE000041B7402F08037E51130E224E51A30E38B
:100BF0001FE51B30E430123AE07F33124981123A8C
:100C0000E07F23124398531AEFE490041BF0801600
:100C100090041BE06008E4F0531A7F531AEF123A75
:100C2000E07F2312498190028BE0B4011B900425E0
:100C3000E0FCA3E0FD123A637F02122663123A1B26
:100C4000900004EE8FF0800A123A1B90000474FFAB
:100C5000F5F0120636900418E020E203020D26E5B6
:100C60001A30E261E51130E35C90041AE06402603E
:100C7000547F02120F65700D123A6C123A3D7F02DA
:100C800012001E801290028DE0B40112123A8612F8
:100C90003A3D7F0212175290028CEFF08003123A15
:100CA000AF90028CE0FF7005123AB68057EFB401A6
:100CB00005123A79804EEFF4704A123A93123A7F55
:100CC000120F73803FE51130E31AE51A30E215E5A3
:100CD0001B30E4307A047923120F7F7A04792312CF
:100CE0000F89802090041AE06003123A91120F736A
:100CF000900289E0FEA3E0FF900424E02FF090042E
:100D000023E03EF090028BE0B4020E900423120F19
:100D100047900002EE8FF0800A123A1B9000027496
:100D2000FFF5F0120636900418E020E103020E01F0
:100D3000E51A30E277E51130E37290041AE06402BC
:100D4000606A7B017A02798D7F0112498190028D60
:100D5000E07014123A6CF0A37404F07421123A4457
:100D60007F0112001E801A90028DE0B4011A123A1F
:100D700086F0A37404F0A37421123A457F01121780
:100D80005290028CEFF08003123AAF90028CE0FF99
:100D90007005123AB68048EFB40105123A79803FE7
:100DA000EFF4703B123A93123A7F8028E51130E35A
:100DB0001AE51A30E215E51B30E4247A0479211291
:100DC0000F7F7A047921120F89801490041AE06051
:100DD00003123A917B017A0479217F221249819092
:100DE000028BE0B4020E900421120F47900002EE35
:100DF0008FF0800A123A1B90000274FFF5F0120681
:100E000036900418E020E003020F46E51120E403C9
:100E1000020EE5A3E064027003020EE57B017A0294
:100E2000798DE4FF124981900418E0B403107F1516
:100E3000120F97600990028DE070037402F0900227
:100E40008DE0700E900419123A6F123A2912001EAA
:100E5000805190028DE0B40110900419E0FD9002E1
:100E600095123A27121752803A90028DE064027070
:100E7000397F1F120F97FF3395E0FE7C007D0A1229
:100E800004D2A3EEF0A3EFF0900419E0FD90028FDE
:100E9000E0FFA3E0900295CFF0A3EFF0A3123A2772
:100EA000124EA490028CEFF08003123AAF90028CA5
:100EB000E0FF700D431A20531AFB90041904F080D0
:100EC0005EEFB4010E531ADF431A04900419740242
:100ED000F0804CEFF47048531ADF531AFB9004195A
:100EE0007402F08032E51130E41FE51B30E430126B
:100EF0003AE77F31124981123AE77F211243985332
:100F00001AFBE4900419F08016900419E06008E4DC
:100F1000F0531ADF531AFB123AE77F2112498190EE
:100F2000028BE0B4031690041FE0FCA3E0FD123A2C
:100F300032122663123A1BEE8FF08007123A1B74AE
:100F4000FFF5F012061722E0FCA3E0FD90042AE072
:100F5000FAA3E0FB7F01122663900286E0FBA3E088
:100F6000FAA3E0F9227B017A02798D12498190027D
:100F70008DE0227B017A0479237F22124981227B32
:100F8000017F321249817B01227F22124398531A3A
:100F9000F7E490041AF0227B017A02798E124981DB
:100FA00090028EE0227B017A0479187F2412498115
:100FB000900418E030E0077DC87F30123AF59004C5
:100FC00018E030E1077DC87F16123AF5900418E06A
:100FD00030E2077DC87F36123AF5900418E030E31E
:100FE000077DC87F50123AF5900418E030E02C12CB
:100FF00012CE123ACB7A047928E4FF1228C090026C
:101000008AEFF0600B43172090041CE004F0800886
:101010005317DFE490041CF0431604900418E030EA
:10102000E11812134512132C6005123AD6800853AA
:1010300017BFE490041DF0431608900418E030E256
:101040001812130812132C6005123AD68008531791
:10105000BFE490041DF0431608900418E030E32C20
:1010600012137B123ACB7A04792C7F021228C0909B
:10107000028AEFF0600B43178090041EE004F080BA
:101080000853177FE490041EF0431610900418E0F4
:1010900030E0077D887F30123AF5900418E030E1A7
:1010A000077D887F16123AF5900418E030E2077D3C
:1010B000887F36123AF5900418E030E3077D887F88
:1010C00050123AF5900418E030E0281212CE7F2931
:1010D000121369900417E004F07006900416E004FF
:1010E000F0900416E07004A3E0640A700690041601
:1010F000F0A3F0900418E030E1081213457F2A12A3
:101100001369900418E030E2081213087F2B1213C1
:1011100089900418E030E30812137B7F2C121389A6
:10112000900427E0C394034002E4F0900427E070A9
:1011300014900418E030E00D7D981212821212F221
:101140007F34121373900427E06401701490041824
:10115000E030E10D7D981212951212F27F351213D4
:1011600073900427E064017018900418E030E211D5
:101170007D981212A81213537A0279887F3612438F
:1011800098900427E064027018900418E030E3118E
:101190007D981212BB1213537A0279887F3712435B
:1011A00098900427E004F0900418E030E0127DD815
:1011B000121282123A4F500543182080035318DF51
:1011C000900418E030E1127DD8121295123A4F5077
:1011D0000543184080035318BF900418E030E21212
:1011E0007DD81212A8123A4F50054318408003537D
:1011F00018BF900418E030E3127DD81212BB123AE7
:101200004F5005431880800353187F5317F79004FD
:1012100018E030E0167DA87F30123AF57F301212C8
:10122000DC500543180480035318FB900418E03089
:10123000E1167DA87F16123AF57F161212DC5005D2
:1012400043180880035318F7900418E030E2167D25
:10125000A87F36123AF57F36121316500543180848
:1012600080035318F7900418E030E3157DA87F50F1
:10127000123AF57F501213165004431810225318D7
:10128000EF227F30123AF57F30123D6D900286EEEC
:10129000F0A3EFF0227F16123AF57F16123D6D9003
:1012A0000286EEF0A3EFF0227F36123AF57F361277
:1012B0003D6D900286EEF0A3EFF0227F50123AF5DA
:1012C0007F50123D6D900286EEF0A3EFF0227F304A
:1012D000123D6D900286EEF0A3EFF022123D6D906C
:1012E0000286EEF0A3EFF0C3E094FF900286E09454
:1012F0000722900286E0FEA3E0FF12504E90028883
:10130000EEF0A3EFF07B01227F36123D6D90028656
:10131000EEF0A3EFF022123D6D900286EEF0A3EF07
:10132000F0C3E094FF900286E0940722900286E0EA
:10133000FCA3E0FD7B017A04792A7F011228C0908A
:10134000028AEFF0227F16123D6D900286EEF0A326
:10135000EFF022900286E0FEA3E0FF12504E9002D2
:1013600088EEF0A3EFF07B01227B017A02798612EE
:101370004398227A027988124398227F50123D6D59
:10138000900286EEF0A3EFF0227B017A02798612BA
:1013900043982290029AEFF090029CEAF0A3EBF0BF
:1013A00090029BEDF0600302149E90029AE014609C
:1013B0002514603D146057240370717F0F121729A4
:1013C0007A03793C7F0A1249817F1B121745122E3E
:1013D00043F97F2180537F101217297A03793C7FCC
:1013E0000B1249817F1C121745122E43F97F228070
:1013F00038122F4C7F111249817F0C1217357F1D37
:101400001249819002A1122E43F97F22801B122FD4
:101410004C7F121249817F0D1217357F1E124981B0
:101420009002A1122E43F97F2312498190033AE0E2
:10143000FEA3E0FFA3E0FD7C00120998122F18C262
:10144000109002FD12083600000000122EDF120874
:101450003600000000C213C211E490033DF0900377
:101460000C74FFF0C212E4900301F0FBEB75F00A7C
:10147000A4241AF582E43403F58312083600000030
:1014800000EB122EEEF58312083600000000EB127E
:101490002F30E4F0A3F00BEBB403D17F0022301027
:1014A000499002FD12083600000000122EDF1208DB
:1014B000360000000090033CE0FF30121BA3E01256
:1014C0002F30E0FCA3E0C39FFFEC9400F99002A151
:1014D000122E43122F75800D9002A1122E43F9E4B3
:1014E0008FF0120592C2107F002290029BE06401EF
:1014F00060030217269002A1122E43F91204FAFF8C
:10150000AEF0240FFDE43EFC90029CE0FAA3E0FB69
:10151000D39DEA9C40030215A2EF24F1FFEE34FFB5
:10152000FEC3EB9FEA9E407A9002F9122E12A3129C
:101530002E2112078E4065900301E060037F012297
:1015400090029AE01460111460151460192403705D
:101550001D122F537F298013122F537F2A800C12C4
:101560002F537F2B8005122F537F2C12498190021D
:10157000A0E0B401149002A4E0FEA3E0FFC374FF56
:101580009FF0740F9E9002A4F0122E1E9002A412DF
:101590002E8C7022900338E004F0801A122EAD7F5A
:1015A00000229002FD12083600000000122EDF1209
:1015B000083600000000900318122F3EC39FEC9ED7
:1015C0005003021726E412036BC004C005C006C016
:1015D000079002F5122E12E4120366D003D002D057
:1015E00001D00012023F9002A612082A9002A61211
:1015F0002E12124FC99002AAEEF0A3EFF090029AB9
:10160000E01460111460151460192403701D122F6A
:101610005A7F2D8013122F5A7F2E800C122F5A7F43
:101620002F8005122F5A7F30124398E4FFFEFDFCF5
:10163000900332122E21C312078E700890030CE023
:1016400004F0800E7B017A03791A1244FC90030C9B
:10165000EFF09002F5122E1290030CE0FB3395E0B0
:10166000FA90031E122EFA12082A9002A6122E12C7
:1016700090031A122EFA12082A9002A1122E43F990
:101680001204FAFFAEF090030CE0FD3395E0FC90FD
:10169000032275F00AED120867EC122F02EEF0A398
:1016A000EFF0E4FFFEFDFC900328122E21C3120789
:1016B0008E603D122EEA122E10122E1ED312078EAD
:1016C0004011301102C211D21390030CE090033D7F
:1016D000F0801D122EEA122E10122E1EC312078E3B
:1016E000500B301102D213D211D21280037FFF228D
:1016F00030132E30112B1232DF90029FE02FFF901B
:10170000029EE03EF99002A1122E43122F75900323
:10171000017401F09002FD120836000000007F0005
:1017200022D2107F00227F00227B017A03791812D7
:1017300049817B01227B017A03793C1249817B013B
:101740007A03793A227B017A03793A12498190022D
:10175000A122900291EFF0900293EAF0A3EBF090B7
:101760000292EDF060030218B5900338F0A3F090F8
:1017700002FD120836000000009002F51208360043
:10178000000000E49002F3F0A3F0900301F0900257
:10179000F1F0A3F090030AF0A3F0900306120836CC
:1017A0000000000090030212083600000000E490E0
:1017B0000317F0900291E014602614603F14605A01
:1017C000240370747F0F121AD47A03793C7F0A12B3
:1017D00049817F1B121AF07429F0A3742DF0805BED
:1017E0007F10121AD47A03793C7F0B1249817F1C37
:1017F000121AF0742AF0A3742EF0803F122F4C7F3F
:10180000111249817F0C121AE07F1D12498190024A
:10181000EF742BF0A3742FF08021122F4C7F121243
:1018200049817F0D121AE07F1E1249819002EF74E8
:101830002CF0A37430F080037FFF22900293E0FE2F
:10184000A3E0FFEF244CFFEE34EBFEE434FFFDE4B5
:1018500034FFFC90029E12082A90029E122E12EC77
:1018600033501090029EA3A3A3E012078090029E23
:1018700012082A90029EE0FCA3E0FDA3E0FEA3E094
:10188000FBAA06A905A80490033AE0FEA3E0FFE442
:10189000FCFD120663122F18900318E0C313FFA378
:1018A000E0139002F1CF122E3CF9741475F0B412CB
:1018B00006177F0022900292E064016003021AD1B1
:1018C000900317E014604B147003021A661470033F
:1018D000021A9024036003021ACB122E40122E65C6
:1018E000402D122F0B50289002F9122E12A3122E07
:1018F00021C312078E5003021ABA122E40F9741037
:1019000075F0CC1206179003177401F0021ABF028B
:101910001ABF9002EFE0FF7B017A027998124981A9
:10192000122E1E900298122E8C7006900338E0043E
:10193000F09002F1122F3EB50713ECB5060F90029E
:1019400093E0FFA3E0900315CFF0A3EFF09003180E
:10195000E0FEA3E0FFC3ED9FEC9E5003021ACE9081
:1019600002F5122E1290031112082A900338122E3B
:101970005CC004C005C006C0079002F5122E12E438
:10198000120366D003D002D001D00012023F9003B0
:101990000D12082A122EDF120836000000009003F4
:1019A0000D122E12124FC990029EEEF0A3EFF0908E
:1019B00002F0E0FF7B017A02799E124398900306C1
:1019C000122E12900311122E21C312078E40167888
:1019D000027C037D017B017A03790D7E007F0A1270
:1019E0000A91021ACE900306122E12E41203667BAD
:1019F000C37AF579A8783E120136C004C005C00646
:101A0000C007900311122E12E4120366122F27D082
:101A100007D006D005D00474FC1202DE4003021A7F
:101A2000CE90030AE0F9A3E0FF122E40122F75902A
:101A30000291E0640270517B017A02799C7F14125A
:101A4000498190029CE0FF122E40F9E48FF01205CC
:101A500092121AFD122E2DF9EE8FF01205929003BC
:101A6000177402F08068122E40122E654060122F0B
:101A70000B505B121AFD122E2DF91204FAC39FFFB0
:101A8000E5F09E8FF01206179003177403F0803E66
:101A9000122E40F91204FAFF24F1122E6C4020EFAE
:101AA000240F122F0E50189002F9122E12A3122E8C
:101AB00021C312078E40037F0122122EAD800F90AA
:101AC00002FD1208360000000080037FFF227F0025
:101AD000227FFF227B017A0379181249817B012240
:101AE0007B017A03793C1249817B017A03793A229E
:101AF0007B017A03793A1249819002EF227B017AC5
:101B000002799D7F051249812290028112083600D8
:101B1000000000C200C201C202C204C205C206D255
:101B200007D290C291125067E4900280F090027741
:101B3000F090027BF0A3F0A3F0900263F090026EAD
:101B4000F090027904F0E4A3F090026BF0A3F0901F
:101B5000027EF0A3F090027804F0431601FB7A02B3
:101B6000795EE490028EF07D1EFC124FE5900278C3
:101B7000E064016003021E7A1251B1E52470FCC2D8
:101B80000312501A900277EFF06005200102D20193
:101B9000900277E07017300114123AEE124D731272
:101BA0003AEE1251F1EF6005431940D202900277EC
:101BB000E06009300106123AEE124E59E51920E7AD
:101BC0000330E602D204120FA57B017A02796490F9
:101BD000026BE0FCA3E0FD900263E090028BF01248
:101BE0000B43900263E0C3940540057401F0800646
:101BF000900263E004F0E51820E50F20E20C20E6F7
:101C00000920E30620E70330E404D20380207B01AF
:101C10007A02796412448A7B017A02796A7F2012FF
:101C2000498190026AE0FD7C00E4FF124E3090048E
:101C30001C123AA6400343182090041D123AA640F5
:101C40000343184090041E123AA640034318802014
:101C5000A1055318FD800343180220A3055316FD68
:101C6000800343160220A40330A507431910D203B2
:101C700080035319EF30A407431710D20380035396
:101C800017EF30A507431708D20380035317F7E572
:101C900024C39414506A1252275060123A9F125073
:101CA000CF900285EFF0BFA80B124DD3123A9A12D3
:101CB0004F0E8041900285E0FF5407FEBE0412EFF4
:101CC00054F8FE2400F9E43400FA7B01124F0E8030
:101CD0002A900285E06468702220000512518BD2A0
:101CE000001230A6EF7014123A9A124F0E5319FDDB
:101CF0005319FBC2009002807401F0124305808FDB
:101D0000125034E51030E705200602800830060B3B
:101D1000E51020E7069002807401F0E5103392068A
:101D2000E51B30E6069002787403F0E51030E3120C
:101D300020050FC207E490026EF090027FF0D2A05F
:101D4000800E30050BE51020E30690026E7401F062
:101D5000E510A2E3920530061E30051090027FE0E8
:101D600004F0E0B40313E4F0B2A0800D20A304C299
:101D7000A08006D2A08002D2A090026EE070033054
:101D8000071F7B017A02796D7F0512498190026DF0
:101D9000E075F00AA4FF90026BE5F0F0A3EFF0808D
:101DA00007E490026BF0A3F0E51120E40B90027BB6
:101DB000E06005E4900419F0E511541090027BF006
:101DC000E51120E309A3E06005E490041AF0E511B1
:101DD000540890027CF0E51120E209A3E06005E4DC
:101DE00090041BF0E511540490027DF0A3E004F090
:101DF0002004033003047F0A80027F0390027EE008
:101E0000B50704E4F0B2B5124EC8900280E0701637
:101E1000A31207F5E47BA07A8CF9F8C312078E7041
:101E20000590028004F0900280E06015124F50127D
:101E300034C0EF700C900280F0A31208360000004E
:101E400000200406200303021B6D5311EF5311F70A
:101E50005311FB53107F531ADF531ABF531A7FE4F9
:101E6000123AC27F01121E807F02124E30E47F03BD
:101E7000121E80FF124E30021B6D900278E0FF228E
:101E8000FDFC124E30E4FDFC2290028B123952C24E
:101E9000084A700FA312394412087390029A12393B
:101EA00052804990028E123944120873E94A701E1A
:101EB0007B017A03794590029A04123953C003C01A
:101EC00002C00190028E123944120893800F9002D2
:101ED0008E12394412087390029A12395290028B72
:101EE0001239441204251239401251E812394112B4
:101EF00039F7705B7B017A03793EC003C002C001F1
:101F000012394190000D120912123941120425FFB5
:101F100012513F1239411239DA900006EF1204B023
:101F2000123941120425FF1250F51239419000096F
:101F3000EF1204B01239FDFF90000112055A6F70C4
:101F400002E5F0600280631239417402123A031212
:101F500039411239F7B4022C1239DAC003C002C079
:101F6000011239A0240AF9E43AFA9002B712395260
:101F7000D001D002D0031231C9BF01081239417417
:101F800003123A031239411239F764037036900094
:101F90000A1208E2123FBE90029DEFF024FE601785
:101FA0002403600614701D7F0022E490029212390F
:101FB000E0E04401022104D208123941900010747B
:101FC000011204B020080E90028B123944EA494BEA
:101FD000700302213620081190028B12394412043A
:101FE00025C31330E0030220EE1239411239FDFF00
:101FF000D39408500280027F089002A0EFF064089A
:1020000070030220921239DA120873C003C002C0B2
:1020100001123941123A097E00D001D002D003905A
:1020200002A112394D9002A11239449002A0E0FFA2
:10203000E92FF9EE3AFA9002A41239527B017A02A2
:10204000799290029DEBF0A3EAF0A3E9F09002A749
:10205000EBF0A3EAF0A3E9F09002A4123944C00324
:10206000C002C0019002A1123944D082D083D0E0D6
:102070006B7008E965827003EA658360389002A19D
:1020800012396B1204259002A712396AEF12049ECE
:1020900080C61239411239DA120873C003C002C077
:1020A00001123941123A097E00D001D002D00390CA
:1020B000029D12394D9002A0E01239401239CB1224
:1020C0000425C39F12049E1239E1A208E43354018F
:1020D000FFE054FE4FF0E054FDF0E054E34408F01C
:1020E000E0FF90029D1239441248ED7F0022123920
:1020F000411239FD7F0070027F01900292EF123988
:10210000E0E054FE1239B24408F0E0FF7B017A02AD
:1021100079921248ED1239A0F8AC027A7479957F61
:10212000111239BBC003C002C00190028E123944A3
:102130001208937F01227F002290028B1239524AAB
:10214000700FA312394412087390029A1239528008
:102150004D90028E123944120873E94A701E7B01B9
:102160007A03797590029A04123953C003C002C0F1
:102170000190028E123944120893800F90028E1241
:10218000394412087390029A12395290028B123914
:1021900044120425FF90029A1239441251E8900229
:1021A0009A1239441239E9706B7B017A03793EC087
:1021B00003C002C00190029A12394490000E120925
:1021C0001290029A123944120425FF12513F9002D4
:1021D0009A123944123A0F900006EF1204B090029E
:1021E0009A123944120425FF1250F590029A1239BE
:1021F00044900009EE8FF01206361239EFE04401E8
:1022000012398C1248ED90029A1239447401123A34
:10221000157F002290029A1239441239E964027043
:1022200035123A0FC003C002C00190029A1239A3BE
:10223000240BF9E43AFA9002AA123952D001D002E2
:10224000D003122AA6BFFE037F002290029A123901
:10225000447403123A1590029A1239441239E9640F
:1022600003705D90000B1208E21248A290029DEFED
:10227000F024FE6011240360061470107F0022E435
:10228000900292F080069002927401F01239EFE011
:1022900054FEF0E044021239901248ED90029A1276
:1022A00039A3F8AC027A7479A67F121239BBC00345
:1022B000C002C00190028E1239441208937F01229D
:1022C00090029A1239441239E9640160030223D65C
:1022D00090028B123944EA494B70030223D6120450
:1022E00025C31330E0030223C890029A12394490A8
:1022F000000912055AFFAEF0D39408EE9400500284
:1023000080027F089002A6EFF0123A0F120873C005
:1023100003C002C00190029A123944123A097C00AB
:10232000D001D002D00329F9EC3AFA90029D12397B
:102330005290029D1239A37E002FF9EE3AFAA312B1
:10234000395290029AE0F9A3E0FAA3E09002A3C9FF
:102350001239539002A0123944C003C002C0019048
:10236000029D123944D082D083D0E06B7008E965B9
:10237000827003EA658360159002A312396B120420
:102380002590029D12396AEF12049E80C69002A623
:10239000E0FF90029A1239441239CB1204FAC39F1B
:1023A000FFE5F094008FF01206171239EF90028BC0
:1023B0001239441204255401FF900291E054FE4F5B
:1023C00012398C1248ED800E90029A123944900016
:1023D0001174021204B07F0022C0E0C0F0C083C0BC
:1023E0008263A201C083C082C0D075D0089002E190
:1023F000E5B1F090042FE004F0700690042EE004A4
:10240000F0C2E8C292E5BB30E34C900431E004F046
:102410007006900430E004F075B130122F7B30E587
:102420001A1230609002E0E4F01230465005122F8C
:10243000B280F675BCA0123082801B9002E0E4F0FE
:102440001230465008123051122FC180F312306002
:1024500075BCA012308CE5BB30E452900433E0042C
:10246000F07006900432E004F075B140122F7B301A
:10247000E51D75B1801230639002E0E4F012304641
:102480005005122FB280F675BCA1123082801E90CA
:1024900002E0E4F01230465008123051122FC18091
:1024A000F375B18012306375BCA112308CE5BB307E
:1024B000E552900435E004F07006900434E004F036
:1024C00075B150122F7B30E51D75B19012306390BD
:1024D00002E0E4F01230465005122FB280F675BCCF
:1024E000A2123082801E9002E0E4F01230465008C2
:1024F000123051122FC180F375B19012306375BC48
:10250000A212308CE5BB30E652900437E004F07044
:1025100006900436E004F075B160122F7B30E51DA3
:1025200075B1A01230639002E0E4F012304650051D
:10253000122FB280F675BCA3123082801E9002E08A
:10254000E4F01230465008123051122FC180F3755A
:10255000B1A012306375BCA312308CE5BB30E00E25
:1025600075B10075B200D20F75B12075B345E5BBEA
:1025700030E10B75B11075B20075B380D20DE5BABC
:1025800030E34075B1B075B200E5BC541F3333334E
:1025900054F8FFE5BD54E0FEC41354074F900438CF
:1025A000F0E0FF700D75B1C075BCA0F5BD75B3400E
:1025B0008011EFB4580B7BFF7A5079931249378022
:1025C00002D20EE5BA30E50875B1D075B200D20C72
:1025D000E5BB30E70C75B13075B38075B17075B27D
:1025E00000E5BA30E00C75B14075B38075B1807507
:1025F000B200E5BA30E10C75B15075B38075B19099
:1026000075B200E5BA30E20C75B16075B38075B192
:10261000A075B200E5BB30E20C75B12075B2007553
:10262000B10075B380E5BA30E40C75B1B075B38014
:1026300075B1C075B200E5BA30E60C75B1D075B3AE
:102640008075B1E075B200D2E89002E1E0F5B1D258
:1026500092D0D0D082D08363A201D082D083D0F038
:10266000D0E032900294EAF0A3EBF0900291EFF008
:10267000A3ECF0A3EDF07B01EF124698E0FEA3E09F
:102680006D7002EE6C602A900292E0FEA3E0FF9073
:102690000291E0FD124698EEF0A3EFF0ED12466FC6
:1026A0001208360000000012467D120836000000B5
:1026B00000EB70030227407B017A0279A87F0712A2
:1026C00049819003CD12464B9002A812465C74FCDF
:1026D0001202DE604AE49002ACF0A3F09002ACE09B
:1026E000FEA3E0FF64034E602AEF7802C333CE33CB
:1026F000CED8F924E1F58274033EF5831208360042
:102700000000009002ADE004F070D19002ACE00453
:10271000F080C99002A812464B9003CD12082A7B84
:10272000017A0379D17F091249817B017A0379C942
:102730007F061249817B017A0379F67F081249816D
:10274000900294E0FEA3E0FBAA06900292E0FEA3B2
:10275000E0FFC3EF9BFFEE9AFEE49400FDE49400DB
:10276000FC12036690029E12082A12466B12464B18
:1027700090029E12465C12004590029612082A12A0
:10278000467D12465C1246481200411246429002B3
:1027900091E0FB12468112082A90029612464BEBFA
:1027A00012466F12082A90029612464B9003CD12E1
:1027B000465C12013690029612082A90029A12463E
:1027C0004B9003C912465C1201361246429003D167
:1027D00012465C12013690029E12082A90029A124A
:1027E000464B90029612465C12004590029E12469D
:1027F0005C1200459002A212082A9003CD1246579F
:1028000074FC1202DE606C12468F12035590029621
:1028100012465C74FC1202DE50259003CD12464B2A
:10282000125198C004C005C006C00712468F12039B
:1028300055D003D002D001D00012466812082A12E7
:10284000468F90029612465C74FC1202DE602440B1
:10285000229003CD12464B125198C004C005C00609
:10286000C00712468FD003D002D001D000124668B4
:1028700012082A9002A212465774FC1202DE500976
:10288000E49002A6F0A3F0802E12468F9002A212CE
:10289000465C74FC1202DE600D400B9003F6E0FF14
:1028A0009002A6E4800D9002A212464B1203A4905F
:1028B00002A6EEF0A3EFF09002A6E0FEA3E0FF2256
:1028C00090028CEBF0A3EAF0A3E9F090028BEFF01A
:1028D000700C9002947421F0A37431F08022900265
:1028E0008BE0FFB4010C9002947422F0A37432F0D8
:1028F000800EEFB4020A9002947423F0A37433F0B4
:10290000AE04AF0512504E90028FEEF0A3EFF090A0
:10291000028BE0FF2487F582E43403F583E0605600
:10292000EF124AEA12083600000000E4900293F029
:10293000124B0390028BE0C454F0249DF582E434E2
:1029400003F583EEF0A3EFF0900293E004F0E0B41F
:1029500008DE124B03E4FCFD124AE512082AEB12D2
:102960004AEAC083C082124B0C1207B2D082D083D5
:1029700012082A022A2C124B03E4FCFD90028BE081
:10298000124AEAE0F8A3E0F9A3E0FAA3E02FFFEA95
:102990003EFEED39FDEC38FCC006C00790028BE02E
:1029A000FF124B1AC083C082124AF8E0D082D08353
:1029B00075F002120867E0FEA3E0FBAA06D007D07C
:1029C00006C3EF9BFFEE9AFEED9400FDEC9400FC35
:1029D000124AE512082A124B03EB124B1AC083C0AD
:1029E0008290028BE0FD248A124AFBE0D082D083E1
:1029F00075F002120867EEF0A3EFF0748A2D124A08
:102A0000FBE004F090028BE0FF248A124AFBE0B462
:102A10000805124AF8E4F090028BE0124AEA124BE1
:102A20000C12079F90028FEEF0A3EFF090028FE060
:102A3000F9A3E0FF90028CE0FBA3E0FAA3E0C98FCA
:102A4000F0120617900295E0FF7B017A02798F124F
:102A50004398900294E0FF7B017A027991124981B8
:102A6000900291E0FEA3E0FF2432FDE43EFC9002E0
:102A70008FE0FAA3E0FBD39DEA9C40089002937498
:102A800001F0801CEF24CEFFEE34FFFEC3EB9FEA83
:102A90009E500890029374FFF08005E4900293F03A
:102AA000900293E0FF229002A7123894124B689094
:102AB00002AD123894C003C002C0019002AA1238BD
:102AC00067120893123864EA494B70037FFE229024
:102AD00002A7123867C003C002C001123864900018
:102AE000131209129002A71238671238FB12000362
:102AF000123864EE8FF01206179002AD12391624C8
:102B000002F9E43AFAC003C002C0019002AD1238E3
:102B10006990000412091212386412390312087302
:102B2000C003C002C00112386490000912091212D9
:102B300038641238C3C003C002C001123864900068
:102B40000E120912123864123870EA494B601A12D8
:102B5000386412387AC003C002C0011238AED00106
:102B6000D002D003123939804A9002A71238671276
:102B700038FB12520EC003C002C0011238AED001A1
:102B8000D002D00312393912386490001674011241
:102B9000046B900017740112046BFF1204FAF582A3
:102BA00085F083740293FEEF8EF084900017E5F0B9
:102BB0001204B012386490001612043E9000021203
:102BC00004B01249CB9002B0EEF0A3EFF0123864DB
:102BD0009000041208E2C003C002C001123864125F
:102BE00038E3EFF0D001D002D003E4FF124F2F12F0
:102BF0003864900003EF1204B090000312043EFF0B
:102C00009000091208E2C003C002C00112386490AB
:102C1000000C12055AFD1238EAEDF0D001D002D0B6
:102C200003124F2F123864900003EF1204B0900289
:102C3000B0E0FEA3E0FFE92404F9E43AFAC003C0DF
:102C400002C0019002ADE0FB123886D001D002D064
:102C5000037D031244127F0122C290C291C2B5C209
:102C6000A0E490025EF0900266F0124CB3EF6015A3
:102C700090025E7401F07DC87F30123AF57F011238
:102C80004F6F431620124CE3EF600C90025EE0445D
:102C900002F07F16122DF2124D13EF600C90025EBF
:102CA000E04404F07F36122DF2124D43EF6016908F
:102CB000025EE04408F07DC87F50123AF57F0312AF
:102CC0004F6F4316807B017A02795F7F241249811E
:102CD00090025EE0FFA3E06F604CEF30E00A7F17E8
:102CE000122DAA7F2112439890025EE030E10A7F04
:102CF00018122DAA7F2212439890025EE030E20A59
:102D00007F19122DCE7F2212439890025EE030E3AD
:102D10000A7F1A122DCE7F231243987B017A027903
:102D20005E7F2412439890025EE030E00D4316046B
:102D30007F30122DBAE4FF1228C090025EE030E12D
:102D40000D4316087F16122DBA7F011228C090027B
:102D50005EE030E20D4316087F36122DDE7F011251
:102D600028C090025EE030E30D4316107F50122D14
:102D7000DE7F021228C012517D900266E0C39414D7
:102D800050201251B1900266E004F0E52470FCE599
:102D900024C3940140F9900266E0B402DC12522A86
:102DA00080D7D2A012516E7F01227B017A02796412
:102DB0001249817B017A02796422123D6D90026092
:102DC000EEF0FCA3EFF0FD7B017A027962227B0139
:102DD0007A0279641249817B017A02796422123D78
:102DE0006D900260EEF0FCA3EFF0FD7B017A0279BA
:102DF00062227DC8123AF57F02124F6F43164022BD
:102E00009002ACE0FB75F00AA4241AF582E43403C6
:102E1000F583E0FCA3E0FDA3E0FEA3E0FF22900227
:102E2000F5E0F8A3E0F9A3E0FAA3E0FB2290029D0D
:102E3000E075F00AA4FFAEF090029AEEF0A3EFF076
:102E4000900295E0FBA3E0FAA3E02212082AEB75BA
:102E5000F00AA42422F582E43403F583E0FCA3E025
:102E6000FDE402036BF91204FAFF24E2AEF0FDEE7A
:102E700034FFFC900293E0FAA3E0FBC39DEA9C229E
:102E80002FF9EA35F0FA9000040207C5E0FEA3E04E
:102E9000FFE4FCFDEB2FFFEA3EFEED39FDEC38FCD4
:102EA0009002F512082A900339E004F0229002FD06
:102EB000E0FCA3E0FDA3E0FEA3E02401FFE43EFE6E
:102EC000E43DFDE43CFC9002FD02082AE0F9A3E0A9
:102ED000FAA3E09002A1C9F0A3EAF0A3E9F022E48A
:102EE000900338F0A3F09002F52290033DE075F0D6
:102EF0000AA4241EF582E434032275F00AEB1208BA
:102F000067EA75F00AA42583F58322EF241EFFE407
:102F10003EFED3EB9FEA9E22E47B0AFAF9F8120602
:102F2000EE9002F902082AA804A905AA06AB072216
:102F300075F00AA42422F582E43403F58322E0FE2E
:102F4000A3E0FF900338E0FCA3E0FD227B017A03BD
:102F50007918227B017A0279A4227B017A0279AA6C
:102F60002212082A9002ACE0C394022212023F907F
:102F700002C902082AC98FF00206179002DDE5A3F4
:102F8000F075B200E0FF75F002A4241BF582E5F0B5
:102F90003474F583E4939002DEF075F002EFA4241C
:102FA0001CF582E5F03474F583E4939002DFF0E5DC
:102FB000BD229002DEE02EFE900164E02EF8E6F5E0
:102FC000A39002E0E004F022F5BD120425F5A390E1
:102FD000000112043EF5A390000212043EF5A390F6
:102FE000000312043EF5A390000412043EF5A390E2
:102FF000000512043EF5A390000612043EF5A390CE
:10300000000712043EF5A375B34822E5A312049EFF
:10301000900001E5A31204B0900002E5A31204B0F1
:10302000900003E5A31204B0900004E5A31204B0DD
:10303000900005E5A31204B0900006E5A31204B0C9
:10304000900007E5A3229002DFE0FFA3E0FEC39F0C
:10305000229002DEE02EFF900164E02FF8A6A3226A
:1030600075B1709002DDE0F5A32285A31085A31150
:1030700085A31285A31385A31485A315AFA385A3E8
:103080001B2275BD60EF044440F5B32275BD407549
:10309000B3412290028BEEF0A3EFF022F5BF75C48E
:1030A000FF75C5E0FF221236901235D390028612CA
:1030B00035D390004A12043EB4070040030231B2F7
:1030C0009030C7F82828730230DC0231170231270C
:1030D00002315F02316F0231850231A5A2E8920808
:1030E000C2E812363F120A91C003C002C00190022A
:1030F000861235E5A801FCAD03D001D002D0037FD4
:10310000401235AE7D0412480312362C50030231B2
:10311000B21235B71236241235B71231B8600280B8
:10312000791235B7123624A2E89208C2E81235F2B5
:10313000C003C002C0019002861235E5A801FCADB3
:1031400003D001D002D0037F081235AE7D051248AE
:103150000312362C5003E0FF221235B71236241228
:1031600035B71231B8600280311235B712362412E9
:1031700035B77D0612480312362C5003E0FF2212A9
:1031800035B71236241235B79000071208E21248FC
:10319000A2900289EFF06402600574FFF0801312C0
:1031A00035B712362490014BE4F0A3F0A3F090025F
:1031B00089F0900289E0FF229000071208E212488D
:1031C000A2900289EFF06402229002B412389412A5
:1031D0004B689002BA123894C003C002C00190023A
:1031E000B71238671208939002BA123867EA494B4F
:1031F00070037FFE229002B4123867C003C002C081
:10320000019002BA1238679000131209129002B4AA
:103210001238671238FB1200039002BA123867EEB8
:103220008FF01206171239132402F9E43AFAC00398
:10323000C002C0019002BA1238699000041209124B
:103240009002BA123867123903120873C003C00221
:10325000C0019002BA123867900009120912900258
:10326000BA1238671238C3C003C002C0019002BA54
:1032700012386790000E1209129002BA12386712C3
:103280003870EA494B600B9002BA12386712387AEC
:10329000800C9002B41238671238FB12520EC00331
:1032A000C002C0019002BA1238B1D001D002D003DE
:1032B0001239399002BA1238671249CB12391324E5
:1032C00004F9E43AFAC003C002C0019002BA12380D
:1032D00086D001D002D0037D031244127F01227BED
:1032E000017A03791A12456B9002ACEFF0122E04AA
:1032F0009002AD122E4B9002CD122F615005E004CA
:10330000F08005E49002ACF0122E009002B1122E73
:103310004B9002C1122F615005E004F08005E4904B
:1033200002ACF0122E009002B5122E4B9002C51284
:10333000082A9002AD122E219002B5122E12120010
:10334000419002B912082A9002B1122E219002ADCA
:10335000122E12120041AB07AA06A905A80490027A
:10336000B9122E1212023F9002BD12082A9002C119
:10337000122E129002BD122E21120136122F27900A
:1033800002C5122E12120041C004C005C006C007BB
:103390009002BD122E21E4FFFE7D807C3F12004191
:1033A000122F27D007D006D005D004122F6C900220
:1033B000CD122E129002C9122E21120045E4FBFA02
:1033C000F97840122F6C9002C9122E12124FC922A6
:1033D0009002D512082A74FFFFFEFDFC9002D5E092
:1033E000F8A3E0F9A3E0FAA3E0FBC312078E60386C
:1033F0007F807E967D187C4B9002D5E0F8A3E0F9A3
:10340000A3E0FAA3E0FB1202DC6002501B7F807E87
:10341000967D187CCB9002D5E0F8A3E0F9A3E0FA02
:10342000A3E0FB1202DC500F9002D5E0FCA3E0FD0C
:10343000A3E0FEA3E0FF229002D5E0FCA3E0FDA301
:10344000E0FEA3E0FF1203A49002D912082A900222
:10345000D9E0FCA3E0FDA3E0FEA3E0FFEC120366CD
:10346000C8ECC8C9EDC9CAEECACBEFCB9002D5E013
:10347000FCA3E0FDA3E0FEA3E0FF120041E4FBFAA1
:10348000F9F81202DC602640249002D9E0FCA3E0A7
:10349000FDA3E0FEA3E0FFEF24FFFFEE34FFFEED0F
:1034A00034FFFDEC34FFFC9002D912082A9002D9B7
:1034B000E0FCA3E0FDA3E0FEA3E0FFEC1203662224
:1034C000900148A3E0FAA3E04A7002FF229001486D
:1034D0001235BA9002861235D390001512043E14AC
:1034E000604B14605E147003023571147003023572
:1034F0008A240460030235971235DCA801FCAD0371
:103500007B007A0079777E007F0B120A91A20892E5
:10351000E89002861235BA7D071247B390028912ED
:10352000362F40739002861235BA123637900286D3
:103530001235BA12359D600280429002861235BA69
:103540001236371235DCA801FCAD031235F8A2089B
:1035500092E89002861235BA7D061247B39002892E
:1035600012362F5003E0FF229002861235BA12362F
:10357000379002861235BA12359D600574FFF080CF
:10358000169002861235BA123637900148E4F0A33D
:10359000F0A3F0900289F0900289E0FF22900007EA
:1035A0001208E21248A2900289EFF06402227E0023
:1035B000120A91A20892E8900286E0FBA3E0FAA327
:1035C000E0F922E0FBA3E0FAA3E02407F9E43AFAE9
:1035D0009002AAEBF0A3EAF0A3E9F022A2E8920895
:1035E000C2E8900286E0FBA3E0FAA3E0240AF9E433
:1035F0003A2278407C017D017B007A00796F7E0061
:103600007F08020A917D017B017A02795E7E0002C9
:103610000A9190029EEFF0E06402227D007B017A25
:1036200002795E2290004A740102046B900289EFD5
:10363000F0C36480948022900015740102046B78BA
:10364000007C017D017B007A00792F7E007F402283
:1036500075F002A4241BF582E5F03474F583E4933D
:1036600022A4241CF582E5F03474F583E493FD2252
:10367000900006ED1204B07B007A00790022782FCA
:103680007C007D007E00020A917D007E00020A918E
:103690007B017A01796590014B22E4FEC2A600000D
:1036A00000000000000000000000D2A70000D2A629
:1036B00030A6FDA2A7E433FE0000C2A60000000071
:1036C00000000000000000000000D2A630A6FD129D
:1036D00051C90000C2A60000000000000000000068
:1036E00000000000D2A630A6FD1251C90000C2A6FB
:1036F0000000000000000000000000000000D2A652
:1037000030A6FD1251C90000C2A600000000000052
:103710000000000000000000D2A630A6FD1251C932
:103720000000C2A600000000000000000000000031
:103730000000D2A630A6FD1251C90000C2A60000AA
:10374000000000000000000000000000D2A630A62B
:10375000FD1251C90000C2A60000000000000000D8
:10376000000000000000D2A630A6FD1251C90000E2
:10377000C2A6EF24FF92A70000D2A630A6FD00004B
:103780000000AF062275AB0175C27F75C3FFE4F57B
:10379000B1F5B3F5B2F5BC75BD6012309CE4F5A38C
:1037A0000FEFB408F875B38075B110E4F5B3F5B256
:1037B000F5BC75BD4012309CE4F5A30FEFB408F8DA
:1037C00075B38075B12012500075BC8075BD60E482
:1037D000FF124BE17F01124BE17F02124BE17F03AD
:1037E000124BE175B17012500075B1801250007526
:1037F000B19012500075B1A012500075B1B0E4F54F
:10380000B3F5B275BC20F5BDF5BF75C4E075C560F4
:10381000FFE4F5A30FEFB408F875B38075B1C012DB
:10382000500075B1D0E4F5B3F5B275BC40F5BDF507
:10383000BF75C4C0F5C5FFE4F5A30FEFB408F87574
:10384000B38075B1E0125000E4F5B475B50675B6F5
:103850004875AB02C20EC20C90042EF0A3F075C1E5
:1038600030D2E8229002ADE0FBA3E0FAA3E0F92217
:10387000900011E475F0011206369000131208E270
:103880009000030208E2A3E0FAA3E02418F9E43A66
:10389000FA9002C3EBF0A3EAF0A3E9F02278A47C4B
:1038A000027D017B017A0279AF7F02020A919002C8
:1038B000ADE0FBA3E0FAA3E02416F9E43AA801FC8A
:1038C000AD03221204FAF58285F083740793FF7426
:1038D000089390000CCF8FF0120636E92403F9E428
:1038E0003AFA2290000712055AFF9002BCE5F0F068
:1038F000A3227D017BFF7E00020A91900006120444
:103900003EFF22900007E475F00112063690001386
:103910000208E29002BAE0FBA3E0FAA3E02275F00D
:1039200031A424E0F582E43401F58322EF75F0023E
:10393000A42443F9740235F0227E007F02020A912A
:10394000FF90029AE0FBA3E0FAA3E0F92229F9EE46
:103950003AFAEBF0A3EAF0A3E9F0227401F0A374C1
:1039600003F0A37472F090028722FFE0FBA3E475DA
:10397000F0011204E4A9F0FA2278717C037A7479D8
:10398000B87F047D017BFF7E00020A91F0E054FDC8
:10399000F0E054E3440CF0E0FF7B017A02799222DC
:1039A00090029AE0FBA3E0FAA3E022E0541FF0E0CB
:1039B0004401F0E04402F0E054E322AD037BFF7EDB
:1039C00000120A917B007A00790022900008EF1221
:1039D000046BE92409F9E43AFA2290000D0208E2A6
:1039E000F0900291E0541FF02290001102043E90EA
:1039F0000291E0541FF02290001002043E90000952
:103A000002043E9000100204B090000802043E90B0
:103A1000000E0208E29000110204B0900286E0FB62
:103A2000A3E0FAA3E0F9227401F0A37404F0A374F4
:103A30001FF0900428E0FAA3E0FBE4FF22F0A37457
:103A400004F07423A3F090042AE0FAA3E0FB22C35D
:103A5000E094FF900286E0940722F0A37404F0A3A0
:103A60007425F090042CE0FAA3E0FB2290041AE005
:103A7000FDE4900295F0A30422531ABF431A089064
:103A8000041A7402F02290041AE0FD900295740169
:103A900022E4F0531ABF531AF722900285E0FF7B0D
:103AA000017A02796F22E0D394407480949F22902F
:103AB000028C74FFF022431A40531AF790041A0440
:103AC000F022900419F0A3F0A3F022900286E0FC0B
:103AD000A3E0FD7B012243174090041DE004F02287
:103AE0007B017A047925227B017A04791F227B01EC
:103AF0007A02795E2290028BEFF0A3EDF0E4A3F05E
:103B00001251D412521590028DE0FFC00790028B23
:103B1000E054FEFF1241C5E433FED0E04E90028D2A
:103B2000F0E0FFC00790028CE0FF1241C5E433FED5
:103B3000D0E04E90028DF012515090028DE0700353
:103B4000023BC990028BE024EA602124E060322429
:103B5000E66043242070549000021251F9BF000126
:103B60000E9000007402F0900002805290000A1241
:103B700051F9BF00010E9000087403F090000A8014
:103B80003D9000121251F9BF00010E900010740414
:103B9000F0900012802890001A1251F9BF00010E17
:103BA0009000187405F090001A80139000221251B2
:103BB000F9BF00010E9000207406F0900022EEF094
:103BC000A3EFF09004407401F0229002A012389408
:103BD00090029FEFF01200038F828E837402939005
:103BE00002A3F078A47C027A73799E7F021238F2E5
:103BF00078A67C027A7379A07F071238F2C200900F
:103C0000029FE09002ACF09002A0E0F9A3E0FAA3DA
:103C1000E09002A6C9123895E49002AEF09002A39B
:103C2000E0FF9002AEE0FE6F60489002B0EEF090D0
:103C300002A97401F0A37402F0A374AF123C8C6467
:103C4000027027200008FE12389DD200801C9002CE
:103C5000A4E02401FFE433FE9002AFE07C00B5074E
:103C600009ECB506057E0012389D9002AEE004F026
:103C700080AB90029FE0FF7B017A0279A412510889
:103C80009002A9E4F0A3F0A3123C8C22F07B017A0D
:103C90000279A6124FAB9002ADEFF0229002B8125B
:103CA00040DF12521BEF6002805F9002B812409713
:103CB0001204FA9002BC1240B71240811240E8FF91
:103CC000AEF0D39002BDE09F9002BCE09E4005EEB6
:103CD000F0A3EFF09002B81240799000041208E2CD
:103CE000C003C002C0019002B81240971204FAFF4C
:103CF000AEF09002BCA3E0FDD001D002D003124C84
:103D00004EC3EE6480948050089002BB74FFF08034
:103D1000569002B81240791241119002BC1240CD67
:103D20009002BCE0FCA3E0FD9002B8124079124181
:103D30001B9002BCE0FEA3E0FF9002B8124097EE99
:103D40008FF01205929002B81240791240E845F0C7
:103D50006003023CA29002B81240991240A0600396
:103D6000023CA29002BBF09002BBE0FF2290028BCB
:103D7000EFF0E4A3F0A3F0A3F012521590028BE051
:103D80004401FF1241C5E43390028EF0E4FF123685
:103D90009A90028CE4F0A3EFF07F0112369AEFFDC7
:103DA00090028DE0FFED90028CCFF0A3EFF0900237
:103DB0008CE0C4F854F0C868F0A3E0C4540F48F095
:103DC00012515090028EE0606890028BE024EA600D
:103DD0001B24E0602624E660312420703C9000061D
:103DE0001251F9BF00010E900006803A90000E12A9
:103DF00051F9BF00010E90000E802B900016125159
:103E0000F9BF00010E900016801C90001E1251F99F
:103E1000BF00010E90001E800D9000261251F9BFC8
:103E200000010E900026EEF0A3EFF0900440740124
:103E3000F090028CE0FEA3E0FF2212361DE4FF1298
:103E40003BCA123612600343190212361D7F01125B
:103E50003BCA123612600343190212361D7F02124A
:103E60003BCA123612600343190412361D7F031237
:103E70003BCA123612600343190412361D7F041226
:103E80003BCA1236126005431902801278007C0189
:103E90007F40123605782F7C007F4012368912361B
:103EA0001D7F05123BCA123612600543190280328B
:103EB00078407C017F08123605786F7C007F0812FD
:103EC000368912361D7F06123BCA12361260054330
:103ED0001904800E786F7C0012361B7E007F08125A
:103EE0000A9112361D7F07123BCA90029EEFF0E046
:103EF000B4020E78777C0012361B7E007F0B120A0C
:103F000091229002AA1240DF12521BEF60028056EB
:103F10001240941204FA9002AE1240B7124081127D
:103F200040E8FFAEF0D39002AFE09F9002AEE09E7B
:103F30004005EEF0A3EFF01240769000041208E284
:103F4000C003C002C0011240941204FAFFAEF09008
:103F500002AEA3E0FDD001D002D003124AA2C3EE0C
:103F60006480948050089002AD74FFF0804A124043
:103F7000761241119002AE1240CD9002AEE0FCA349
:103F8000E0FD12407612411B9002AEE0FEA3E0FF7E
:103F9000124094EE8FF01205921240761240E845DE
:103FA000F06003023F089002AA1240991240A060FC
:103FB00003023F089002ADF09002ADE0FF229002B4
:103FC000B51238942418F9E43AFA123C9C9002B4E1
:103FD000EFF0BFFF037F00229002B5123867900018
:103FE000041208E2C003C002C0019002B512386793
:103FF0001238E3EFF0D001D002D003E4FF124F2FCC
:104000009002B51238679000091208E2C003C0029E
:10401000C0019002B512386790000C12055AFD12CB
:1040200038EAEDF0D001D002D003124F2F9002B544
:1040300012386790000312043EB507047F02800225
:104040007FFF9002B4EFF06402701C12387AEA49E4
:104050004B60149002B512386790000212043EFFC4
:1040600012387AEF12049E9002B512386712520786
:104070009002B4E0FF229002AAE0FBA3E0FAA3E0E2
:10408000F990000212043E75F005A4FFE92FF9EA49
:1040900035F0FA229002AAE0FBA3E0FAA3E0F922AD
:1040A000900002740112046B90000312043EFF9012
:1040B000000212043E6F22FFAEF02480FDE43EFCBD
:1040C000ED5480C39FFFEC9EF0A3EFF022FFE0FCD5
:1040D000A3E0FDC3EF9DFFE5F09C8FF0020617EB18
:1040E000F0A3EAF0A3E9F02290000702055AC2AF5C
:1040F00075D202851D83851E8222E4F5D2A2149218
:10410000AF051EE51E228E1D8F1EA2AF9214E4FF86
:1041100022E92407F9E43AFA0204FA900004A3EC35
:104120008DF00205CA78FFE4F6D8FD9000007FE02C
:104130007E08E4F0A3DFFCDEFA7525077526E1753D
:1041400081A2024180024761E493A3F8E493A34073
:1041500003F68001F208DFF48029E493A3F8540702
:10416000240CC8C333C4540F4420C8834004F456FD
:10417000800146F6DFE4800B010204081020408035
:1041800090515FE47E019360BCA3FF543F30E5098A
:10419000541FFEE493A360010ECF54C025E060A835
:1041A00040B8E493A3FAE493A3F8E493A3C8C582C8
:1041B000C8CAC583CAF0A3C8C582C8CAC583CADF36
:1041C000E9DEE780BEC2A6EF3392A70000D2A63098
:1041D000A6FD00000000C2A6EFA2E692A70000D252
:1041E000A630A6FD00000000C2A6EFA2E592A7003F
:1041F00000D2A630A6FD00000000C2A6EFA2E49205
:10420000A70000D2A630A6FD00000000C2A6EFA2C3
:10421000E392A70000D2A630A6FD00000000C2A6CF
:10422000EFA2E292A70000D2A630A6FD0000000097
:10423000C2A6EFA2E192A70000D2A630A6FD000020
:104240000000C2A6EF1392A70000D2A630A6FD0080
:10425000000000C2A6D2A70000D2A630A6FD000032
:104260000000A2A7229007FEE0FEA3E08EF0120954
:104270006B4281BABE4281BEEF4281CAFE0000425B
:104280009B78F77C037D017B017A0779E17E007FD3
:104290001F120A91E4900413F08007E4900414F0D4
:1042A000A3F0E490025EF09007FE74BEF0A374EFFA
:1042B0001246CC74571246CC74411246CC74541238
:1042C00046CC74431246CC74481246CC7444124611
:1042D000CC744F1246CC74471246CC74201246CC94
:1042E00074441246CC74451246A474431246A47416
:1042F000441246CCE4F075A707A2AF92001246E83C
:10430000A20092AF22100C0280297B017A027986EA
:10431000124E02900286E030E009E0131354079039
:104320000371F09002877401F0A37402F0A3748605
:10433000F08009900287E4F0A3F0A3F0900371E00D
:10434000FF64046052EF14601814602314602E247C
:1043500003703B90028E12395B123944124B278056
:104360002890028E12395B123944124BA6801A90A3
:10437000028E12395B123944121E89800C90028E13
:1043800012395B12394412213990028AEFF09002FF
:104390008AE06003123979229002AD1235D390027F
:1043A000ACEFF0C3943840037F0022A2AA9208C267
:1043B000AAA2E89209C2E89002ACE0FF13131354DA
:1043C0001F2427F9EF5407FF7401A807088002C3D0
:1043D00033D8FC47F7E4FF9002ACE0FE75F0021220
:1043E0003661EFC39D50209002AD1235BA8F8275B1
:1043F000830012043EFDEE1236502FFE900164E061
:104400002EF8A6050F80D0A20992E8A20892AA7FF2
:1044100001229002C01240DF9002BFEDF09002C373
:10442000124097EE8FF01206179002C31240979039
:104430000003ED1204B0900002E41204B09002BF39
:10444000E0FF14F0EF6042E075F005A4FFAEF0A3CA
:10445000E0FBA3E0FAA3E02FF9EA3EFAC003C002B2
:10446000C001A3E0FBA3E0FAA3E02404F9E43AFAD4
:10447000E92FF9EA3EA801FCAD03D001D002D00338
:104480007E007F05120A9180B422900286EBF0A391
:10449000EAF0A3E9F0900286123A1E1204FAFDAC8B
:1044A000F0F47002ECF4600C900418E030E0057F4A
:1044B00001124E30900286123A1E90000212055AE6
:1044C000FDACF0F47002ECF4600F900418E020E111
:1044D0000330E2057F02124E30900286123A1E909F
:1044E000000412055AFDACF0F47002ECF4600C907C
:1044F0000418E030E3057F03124E30229002ACEB4B
:10450000122ED7E49002B0F09002AC122E43F912B2
:104510002E869002B112082A9002AF7401F0900228
:10452000AFE0FFC39403503DEF75F00AA4FF900283
:10453000AC122E43122E809002B1122E21D31207FC
:104540008E401A9002AFE0A3F075F00AA4FF90022B
:10455000AC122E43122E809002B112082A9002AFA4
:10456000E004F080B99002B0E0FF229002D1EB129B
:104570002ED7E49002D5F09002D1122E43F9122EDC
:10458000869002D612082A9002D47401F09002D4C8
:10459000E0FFC39403503DEF75F00AA4FF9002D1F1
:1045A000122E43122E809002D6122E21C312078E95
:1045B000501A9002D4E0A3F075F00AA4FF9002D143
:1045C000122E43122E809002D612082A9002D4E0B6
:1045D00004F080B99002D5E0FF229002E5EBF0A351
:1045E000EAF0A3E9F0E49002EDF0A3F09002EB749E
:1045F000FFF5F01204E445F0603C9002E8E0FBA314
:10460000E0FAA3E0F9120425FF9002E5E0FBA3E045
:10461000FAA3E0F99002EDE475F0011204E485F0EC
:1046200082F583EF1204B0EF60C29002E9E475F006
:1046300001120AB780B69002E5E0FBA3E0FAA3E01E
:10464000F92290029A12082A90029EE0FCA3E0FD53
:10465000A3E0FEA3E0FF22E4FFFEFDFCE0F8A3E000
:10466000F9A3E0FAA3E0FB2212023F900291E025B9
:10467000E025E024E1F582E43403F5832290029101
:10468000E025E025E024D5F582E43403F58322908B
:1046900003F6E0FCE402037025E024EDF582E43447
:1046A00003F58322F090025EE0FF04F074E12FF541
:1046B00082E43407F5837454F090025EE0FF04F066
:1046C00074E12FF582E43407F5837445F090025EBF
:1046D000E0FF04F074E12FF582E43407F5832274DF
:1046E00050F00E0F74E12E22C2AF75A61E75A6E122
:1046F0002292AF9007FE74CAF0A374FEF07E000F02
:10470000EE24E122E4FFA2AF920B1246E8A20B12C4
:1047100046F11246D71246DF1246D7744F1246E1D1
:104720001246D774571246E11246D774451246E135
:104730001246D774521246E11246D774551246E11A
:104740001246D71246DF1246D774201246E11246AF
:10475000D774491246E11246D774541246D3E4F096
:1047600022124A5B12520090025BEBF0A3EAF0A324
:10477000E9F090001D12055A12096B4783BEEF0045
:10478000004786431980E490043FF090043FE01412
:10479000600804700F122C598003121B0990043F0B
:1047A000EFF080E790043FE0FF124DA390043FEF4D
:1047B000F080D890028A1235D390028A1235E5FA39
:1047C000C003C002C00190028A1235BC1208939047
:1047D000028A1235BA123670C003C002C0019002BC
:1047E0008A1235BA90000312091290028A1235C358
:1047F00090028A1235BC122AA6EF64017F00600283
:104800007FFF2290028A1235D390028A1235E5FA90
:10481000C003C002C00190028A1235BC12089390F6
:10482000028A1235BA123670C003C002C00190026B
:104830008A1235BA90000312091290028A1235C307
:1048400090028A1235BC122AA6EF64017F00600232
:104850007FFF22AB07AF05EB124698ECF0A3EFF019
:10486000EB12466F12083600000000EB1246811270
:104870000836000000007B017A0379CD7F071249DA
:10488000817B017A0379D17F091249817B017A0307
:1048900079C97F061249817B017A0379F67F080284
:1048A00049819002A71238942418F9E43AFA123F89
:1048B00002EFB4FF037F00229002A712386712387C
:1048C0007AEA494B701B9002A712386712390D1211
:1048D00038FB9002A71239162416F9E43AFA12515D
:1048E000089002A71238671252077F022275B1E0C2
:1048F0009002AAE0F0A3E054E0F07E00EF7805C358
:1049000033CE33CED8F9FF9002AAE054E0FCA3E006
:10491000541FFDEC4EFEED4FFF9002AAEEF0A3EF08
:10492000F09002AAE044E0F0A3E0F09002AAE0F5E3
:10493000BCA3E0122FC8229002E2EBF0A3EAF0A39E
:10494000E9F0A2AF920A1246E8A20A92AF9002E200
:10495000E0F9A3E0FAA3E09002E8C9F0A3EAF0A32B
:10496000E9F0A3E4F0A3741DF07B017A0779E1126A
:1049700045DAE49007FDF0A374BAF0A374BEF080AA
:10498000FE9002AE1235D3EFC3943840037F00226D
:10499000A2E89208C2E8E4FE75F002EF123661EE7A
:1049A000C39D5020EF1236502EFD900164E02DF88B
:1049B000E6FD9002AE1235BA8E82758300ED1204C8
:1049C000B00E80D4A20892E87F01221204FAFFAE52
:1049D000F0F5828E83E493FD7401939002BDCDF0D7
:1049E000A3EDF090001712043EFD9002BFF08F82FD
:1049F0008E83740393FE740493FBAA06EDFF7E007E
:104A0000AC02AD031204D29002BEE02FFF9002BDB3
:104A1000E03EFE22E4FFA2AF92001246E8A200129E
:104A200046F11246D71246DF1246D7744F1246E1BE
:104A30001246D774571246E11246D774451246E122
:104A40001246D774521246E11246D774551246E107
:104A50001246D774501246D3E4F022758F4975B8C8
:104A60004875B74075F701E4F5F81251D41250A714
:104A70001250E21242651252211251DEE4FDFCFF97
:104A8000124853E4FDFC7F01124853E4FDFC7F0211
:104A900012485312512D12001612522D124EEBD203
:104AA000AF22E5D230E0057EFF7FFF22124106EF04
:104AB000C39D501C120425F51C740129F9E43AFA2F
:104AC0001240EEE51CF01240FA7002051D0F80DF67
:104AD000A2AF9214C2AF75D25075D2A0A21492AFF9
:104AE000AF057E002290028BE0FB25E025E024BD8F
:104AF000F582E43403F58322748A2FF582E43403CB
:104B0000F5832290028FE0FEA3E0FF22E0FCA3E009
:104B1000FDA3E0FEA3E0FF780322C454F0248DF54A
:104B200082E43403F5832290028B12395290028B77
:104B3000123944120425FF7B017A0279911251E85F
:104B400078917C027D017BFF7A74798D7E007F08ED
:104B5000120A919002991239ABF0E0FF7B017A02C0
:104B600079911248ED7F0122E49002BDF09002BDE0
:104B7000E0FF64036029EF12391EE0701A9002BD55
:104B8000E012391E7401F0EF75F031A424B0F9740D
:104B90000135F0FA7B01229002BDE004F080CE7B6B
:104BA000007A0079002290028B12395290028B1207
:104BB0003944120425FF7B017A0279911251E87B76
:104BC000017A0279917F0E1249819002991239ABD4
:104BD0004404F0E0FF7B017A0279911248ED7F01F5
:104BE00022AD07ED2403FFEFC4F8540FC868FF8F10
:104BF000B175B380E4F5B2ED4420F5BC75BD60E459
:104C0000F5BF75C4FF75C5C0FFFEE4F5A30FBF0077
:104C1000010EEF64084E70F222C2AFD290D2911210
:104C20004A141251B1D2A0D2B57F01124F8D7F022A
:104C3000124F8D7F03124F8DE4FF124F8D1251A53D
:104C4000800612521BEF60051251B180F522E5D2A9
:104C500030E0057EFF7FFF22124106EFC39D501C0E
:104C60001240EEE0F51C1240FA7002051DE51C1220
:104C7000049E740129F9E43AFA0F80DFAF057E0043
:104C800022C0E0C0F0C083C08263A201C083C082A2
:104C9000C0D075D000C000C001C002C003C004C0B5
:104CA00005C006C00775E80075A804124704125134
:104CB000BD80FB1252157F301241C5E4339002676C
:104CC000F0E0FFC0077FC81241C5E433FED0E04EDC
:104CD000900267F0125150900267E07F01B4010228
:104CE0007F00221252157F161241C5E433900267ED
:104CF000F0E0FFC0077FC81241C5E433FED0E04EAC
:104D0000900267F0125150900267E07F01B40102F7
:104D10007F00221252157F361241C5E4339002679C
:104D2000F0E0FFC0077FC81241C5E433FED0E04E7B
:104D3000900267F0125150900267E07F01B40102C7
:104D40007F00221252157F501241C5E43390026752
:104D5000F0E0FFC0077FC81241C5E433FED0E04E4B
:104D6000900267F0125150900267E07F01B4010297
:104D70007F002290000412043E702790000212056A
:104D80005AFFAEF0E475F001120525FCE5F0B50719
:104D900008ECB506047F0180027F00900004EF124A
:104DA00004B02290025EEFF0A37402F0124C19904E
:104DB000025EE024FD70097D04E4FF124E8080064F
:104DC00090025E7402F090025EE0640360F812519B
:104DD000B180F3A2E89208C2E8A2AA9209C2AA7816
:104DE0006F7C007D007B017A0179401235FE7B01EA
:104DF0007A0179007F4012367EA20992AAA2089217
:104E0000E82275B1D0AFBCEFFE90028CE0FDEDFF63
:104E1000123093AFBD90028BE0FE12309390028B64
:104E2000E0FEA3E07805CEC313CE13D8F902049EAA
:104E3000D3ED94FFEC9400AE0540027EFFEF1460CA
:104E40000D14600D14600D2403700D8EFA228EFB7C
:104E5000228EFC22AF068FFD22900286EBF0A3EAA1
:104E6000F0A3E9F0900286E0FBA3E0FAA3E0F9905A
:104E7000000212055AFDACF0E490028EF0024FE5FC
:104E80008F1FA2AF9200C2AFE4F5838D82740A1225
:104E9000511BE51F43A22012511D53A2DFA2009215
:104EA000AF7F0122C002C003900295E0FBA3E09017
:104EB000029ECBF0A3EBF0E4A3F0900297122ECC6D
:104EC000D003D00212139322A2E89208C2E875B16F
:104ED0002075BC8075BD608516A38517A38518A3B2
:104EE0008519A3851AA3A20892E822123979784578
:104EF0007C037A7479957F1112398378757C037DF0
:104F0000017BFF7A7479A67E007F12020A91C2E8C3
:104F1000C20E75B1C0E4F5B2EF131313541F44A0D1
:104F2000F5BCEF5407C43354E0122FC8D2E82290E6
:104F300002BC74FFF5F01204E445F060121204257F
:104F40006F90722E93FF740129F9E43AFA80E022FF
:104F50009001481235BAEA494B70137B017A017906
:104F60004E9001481235D3900015E41204B022EFA0
:104F700014600E14600F1460102403700F75DA4271
:104F80002275DB422275DC422275DD4222EF14607D
:104F90000E14600F1460102403700FE4F5DA22E49D
:104FA000F5DB22E4F5DC22E4F5DD229002B77401A2
:104FB000F0A37402F0A374B1F01231C99002B112DF
:104FC0003867123FBEEF60F4229002D112082AE443
:104FD000FFFEFD7C3F9002D1122E211200451233BC
:104FE000D01203A422AF05900002EC8FF012063617
:104FF000E4F5F012061790028EE09000040204B06F
:10500000E4F5B3F5B2FFE4F5A30FEFB408F8E4F567
:10501000BCF5BDF5BFF5C4F5C522A2E89208C2E80B
:10502000100F028008E4F5B112306A8002E4FFA29A
:105030000892E822A2E89208C2E8100D02800875E2
:10504000B11012306A8002E4FFA20892E822EF2534
:10505000E0FFEE33FE742E2FF58274523EF583E4AA
:1050600093FE740193FF22E490041CF0A3F0A3F0DC
:10507000123AC2123785E4FF124F6F02517DC0E031
:10508000C0D005230524E524B41E03752400D0D028
:10509000D0E0324350552072657175657374656454
:1050A00020726573657400C28CC28E758902758C1E
:1050B000E0D2ABC2A9E4F524F523227BFF7A737911
:1050C000A77F7412367E1235F212363F020A91C261
:1050D000E875B1B012300B1204B0D2E8900438E099
:1050E000FF22C2AE75D984E4F5DAF5DBF5DCF5DD37
:1050F000F5DED2DE2212513F1200038F828E8374BE
:105100000793FE740893FF22C00112392CA801FCFA
:105110007D01D0017E007F02020A91F922C002C007
:1051200004C00612FFF0D006D004D00222900387FC
:105130007401F0A3F0A3F0E4A3F0A3F0A3F022EF36
:10514000C394045008EF90739A93FF80027F0C225F
:10515000C2A600C2A700D2A630A6FD00D2A7224157
:1051600001642F47033E0103560000000C007E013E
:105170007F00900000E4F0A3DFFCDEFA22C28EC2C2
:10518000AB75241AD2ABD28ED28C22123690123545
:10519000D390004AE40204B0ED33EC3360065004CF
:1051A000EC6480FC22C28EE4F58DF58BC28CF58A0E
:1051B00022A2AF92081246E8A20892AF22A2AF92B2
:1051C0000B1246E8A20B92AF22EE25E0FEA2A7E466
:1051D000334EFE22C2A6D2A7D2A630A6FD227F0C55
:1051E0007810E4F608DFFC2275B1D012300B02040F
:1051F000B090000412043EFF22E0FEA3E0FF0F2265
:105200007B017A0379F722900030E40204B012396E
:105210002CFA7B0122C2A700C2A622E5D25401FFCC
:10522000221250BB023E3AA20E22D2AA22227FFFB5
:105230007FFF7FFF7C5773C76D8B68B164BF617060
:105240005E9A5C2159F057FA56345497531C51BF5B
:10525000507B4F4D4E324D294C304B444A6549915D
:1052600048C74807475046A045F8455744BB442621
:105270004396430C428642044187410D40984026A4
:105280003FB73F4B3EE33E7D3E1A3DB93D5B3D009F
:105290003CA63C4F3BFA3BA63B553B053AB73A6B25
:1052A0003A2039D7398F3949390438C1387E383DE9
:1052B00037FD37BF37813744370936CE3695365CF0
:1052C000362435EE35B83583354E351B34E834B6E3
:1052D00034853454342433F533C73399336C333F36
:1052E000331332E732BC32923268323F321631EE3B
:1052F00031C6319E31783151312B310630E030BC2E
:10530000309830743050302D300A2FE82FC62FA43B
:105310002F832F622F412F212F012EE22EC22EA389
:105320002E842E662E482E2A2E0C2DEF2DD22DB532
:105330002D992D7D2D612D452D292D0E2CF32CD849
:105340002CBE2CA32C892C6F2C562C3C2C232C0AE5
:105350002BF12BD82BC02BA72B8F2B772B602B4817
:105360002B312B1A2B032AEC2AD52ABF2AA82A92E2
:105370002A7C2A662A512A3B2A262A1029FB29E65A
:1053800029D229BD29A829942980296C2958294482
:105390002930291D290928F628E328D028BD28AA64
:1053A0002897288428722860284D283B2829281708
:1053B000280527F427E227D127BF27AE279D278C72
:1053C000277B276A275927482737272727172706A4
:1053D00026F626E626D626C626B626A626962687AC
:1053E0002677266826582649263A262B261B260C81
:1053F00025FE25EF25E025D125C325B425A6259733
:105400002589257B256D255E2550254225342527B8
:105410002519250B24FD24F024E224D524C824BA20
:1054200024AD24A0249324862479246C245F245260
:1054300024452438242C241F2412240623FA23ED87
:1054400023E123D423C823BC23B023A42398238C93
:10545000238023742368235C235123452339232E7F
:1054600023222317230B230022F522E922DE22D355
:1054700022C822BD22B222A7229C22912286227B10
:1054800022702265225A22502245223B22302225B8
:10549000221B2210220621FC21F121E721DD21D34C
:1054A00021C821BE21B421AA21A02196218C2182CC
:1054B0002178216E2165215B21512147213E213434
:1054C000212A21212117210E210420FB20F120E88F
:1054D00020DF20D520CC20C320BA20B020A7209EDA
:1054E0002095208C2083207A20712068205F205610
:1054F000204D2044203C2033202A20212019201038
:1055000020071FFF1FF61FEE1FE51FDD1FD41FCC56
:105510001FC31FBB1FB31FAA1FA21F9A1F911F8962
:105520001F811F791F701F681F601F581F501F4861
:105530001F401F381F301F281F201F181F101F0952
:105540001F011EF91EF11EE91EE21EDA1ED21ECA3E
:105550001EC31EBB1EB41EAC1EA41E9D1E951E8E19
:105560001E861E7F1E771E701E691E611E5A1E53E8
:105570001E4B1E441E3D1E351E2E1E271E201E19AC
:105580001E111E0A1E031DFC1DF51DEE1DE71DE06C
:105590001DD91DD21DCB1DC41DBD1DB61DAF1DA81F
:1055A0001DA11D9B1D941D8D1D861D7F1D791D72C6
:1055B0001D6B1D641D5E1D571D501D4A1D431D3D65
:1055C0001D361D2F1D291D221D1C1D151D0F1D08FB
:1055D0001D021CFC1CF51CEF1CE81CE21CDC1CD58D
:1055E0001CCF1CC91CC21CBC1CB61CAF1CA91CA314
:1055F0001C9D1C971C901C8A1C841C7E1C781C7291
:105600001C6C1C661C5F1C591C531C4D1C471C4108
:105610001C3B1C351C2F1C2A1C241C1E1C181C1275
:105620001C0C1C061C001BFA1BF51BEF1BE91BE3E3
:105630001BDD1BD81BD21BCC1BC71BC11BBB1BB547
:105640001BB01BAA1BA51B9F1B991B941B8E1B88A1
:105650001B831B7D1B781B721B6D1B671B621B5CF6
:105660001B571B511B4C1B461B411B3C1B361B3144
:105670001B2B1B261B211B1B1B161B111B0B1B068D
:105680001B011AFC1AF61AF11AEC1AE61AE11ADCD6
:105690001AD71AD21ACC1AC71AC21ABD1AB81AB314
:1056A0001AAE1AA81AA31A9E1A991A941A8F1A8A4D
:1056B0001A851A801A7B1A761A711A6C1A671A627E
:1056C0001A5D1A581A531A4E1A491A441A3F1A3BAD
:1056D0001A361A311A2C1A271A221A1D1A191A14D4
:1056E0001A0F1A0A1A051A0119FC19F719F219EDFD
:1056F00019E919E419DF19DB19D619D119CC19C820
:1057000019C319BE19BA19B519B119AC19A719A33A
:10571000199E199A19951990198C19871983197E50
:10572000197A19751971196C19681963195F195A61
:1057300019561951194D19481944193F193B193770
:105740001932192E192919251921191C191819147A
:10575000190F190B1907190218FE18FA18F518F184
:1057600018ED18E818E418E018DC18D718D318CF8B
:1057700018CB18C618C218BE18BA18B618B118AD8A
:1057800018A918A518A1189D189818941890188C85
:10579000188818841880187C18781874186F186B7B
:1057A00018671863185F185B18571853184F184B71
:1057B00018471843183F183B18371833182F182B61
:1057C00018271823181F181B181718141810180C4E
:1057D00018081804180017FC17F817F417F017ED3D
:1057E00017E917E517E117DD17D917D617D217CE26
:1057F00017CA17C617C317BF17BB17B717B317B00A
:1058000017AC17A817A417A1179D179917951792EA
:10581000178E178A17871783177F177B17781774C8
:105820001770176D176917651762175E175A1757A4
:1058300017531750174C174817451741173E173A7B
:1058400017361733172F172C172817251721171D51
:10585000171A17161713170F170C17081705170124
:1058600016FE16FA16F716F316F016EC16E916E5FC
:1058700016E216DE16DB16D716D416D116CD16CACA
:1058800016C616C316BF16BC16B916B516B216AE96
:1058900016AB16A816A416A1169E169A169716935E
:1058A0001690168D168916861683167F167C167925
:1058B00016751672166F166C166816651662165EE9
:1058C000165B165816551651164E164B16481644AA
:1058D0001641163E163B163716341631162E162A6A
:1058E000162716241621161E161A16171614161128
:1058F000160E160B16071604160115FE15FB15F8E5
:1059000015F515F115EE15EB15E815E515E215DFA2
:1059100015DC15D815D515D215CF15CC15C915C65A
:1059200015C315C015BD15BA15B715B315B015AD0E
:1059300015AA15A715A415A1159E159B15981595C3
:105940001592158F158C1589158615831580157D73
:10595000157A157715741571156E156B1568156523
:105960001562155F155D155A155715541551154ECD
:10597000154B154815451542153F153C153915377A
:1059800015341531152E152B152815251522151F23
:10599000151D151A151715141511150E150B1509CA
:1059A00015061503150014FD14FA14F814F514F275
:1059B00014EF14EC14E914E714E414E114DE14DB1E
:1059C00014D914D614D314D014CE14CB14C814C5BF
:1059D00014C314C014BD14BA14B714B514B214AF60
:1059E00014AD14AA14A714A414A2149F149C1499FF
:1059F000149714941491148F148C1489148714849C
:105A00001481147E147C1479147614741471146E39
:105A1000146C1469146614641461145E145C1459D3
:105A2000145714541451144F144C1449144714446B
:105A30001442143F143C143A143714351432142F02
:105A4000142D142A1428142514221420141D141B98
:105A50001418141614131410140E140B140914062D
:105A60001404140113FF13FC13F913F713F413F2C6
:105A700013EF13ED13EA13E813E513E313E013DE5A
:105A800013DB13D913D613D413D113CF13CC13CAEA
:105A900013C713C513C213C013BD13BB13B813B67A
:105AA00013B313B113AF13AC13AA13A713A513A207
:105AB00013A0139D139B1399139613941391138F93
:105AC000138C138A1388138513831380137E137C1E
:105AD00013791377137413721370136D136B1368A8
